{
	"contracts/Payroll.sol": {
		"Payroll": {
			"abi": [
				{
					"inputs": [],
					"name": "getSubscribedPayrollAddress",
					"outputs": [
						{
							"internalType": "bytes32[]",
							"name": "ActiveSubscriberList",
							"type": "bytes32[]"
						}
					],
					"stateMutability": "view",
					"type": "function"
				},
				{
					"inputs": [
						{
							"internalType": "bytes32",
							"name": "_addr",
							"type": "bytes32"
						},
						{
							"internalType": "bytes32",
							"name": "_data",
							"type": "bytes32"
						}
					],
					"name": "getUserPayrollInformation",
					"outputs": [
						{
							"internalType": "uint256",
							"name": "Basic",
							"type": "uint256"
						},
						{
							"internalType": "uint256",
							"name": "Tax",
							"type": "uint256"
						},
						{
							"internalType": "uint256",
							"name": "Pension",
							"type": "uint256"
						},
						{
							"internalType": "uint256",
							"name": "Others",
							"type": "uint256"
						}
					],
					"stateMutability": "view",
					"type": "function"
				},
				{
					"inputs": [
						{
							"internalType": "bytes32",
							"name": "_addr",
							"type": "bytes32"
						},
						{
							"internalType": "bytes32",
							"name": "_data",
							"type": "bytes32"
						}
					],
					"name": "subscribeToPayroll",
					"outputs": [
						{
							"internalType": "bool",
							"name": "",
							"type": "bool"
						}
					],
					"stateMutability": "nonpayable",
					"type": "function"
				},
				{
					"inputs": [
						{
							"internalType": "bytes32",
							"name": "_addr",
							"type": "bytes32"
						},
						{
							"internalType": "uint256",
							"name": "_amount",
							"type": "uint256"
						},
						{
							"internalType": "bytes32",
							"name": "_data",
							"type": "bytes32"
						}
					],
					"name": "updateBasicSalaryPercent",
					"outputs": [
						{
							"internalType": "bool",
							"name": "",
							"type": "bool"
						}
					],
					"stateMutability": "nonpayable",
					"type": "function"
				},
				{
					"inputs": [
						{
							"internalType": "bytes32",
							"name": "_addr",
							"type": "bytes32"
						},
						{
							"internalType": "uint256",
							"name": "_amount",
							"type": "uint256"
						},
						{
							"internalType": "bytes32",
							"name": "_data",
							"type": "bytes32"
						}
					],
					"name": "updateOthersSalaryPercent",
					"outputs": [
						{
							"internalType": "bool",
							"name": "",
							"type": "bool"
						}
					],
					"stateMutability": "nonpayable",
					"type": "function"
				},
				{
					"inputs": [
						{
							"internalType": "bytes32",
							"name": "_addr",
							"type": "bytes32"
						},
						{
							"internalType": "uint256",
							"name": "_amount",
							"type": "uint256"
						},
						{
							"internalType": "bytes32",
							"name": "_data",
							"type": "bytes32"
						}
					],
					"name": "updatePensionSalaryPercent",
					"outputs": [
						{
							"internalType": "bool",
							"name": "",
							"type": "bool"
						}
					],
					"stateMutability": "nonpayable",
					"type": "function"
				},
				{
					"inputs": [
						{
							"internalType": "bytes32",
							"name": "_addr",
							"type": "bytes32"
						},
						{
							"internalType": "bool",
							"name": "_status",
							"type": "bool"
						}
					],
					"name": "updateSubscription",
					"outputs": [
						{
							"internalType": "bool",
							"name": "",
							"type": "bool"
						}
					],
					"stateMutability": "nonpayable",
					"type": "function"
				},
				{
					"inputs": [
						{
							"internalType": "bytes32",
							"name": "_addr",
							"type": "bytes32"
						},
						{
							"internalType": "uint256",
							"name": "_amount",
							"type": "uint256"
						},
						{
							"internalType": "bytes32",
							"name": "_data",
							"type": "bytes32"
						}
					],
					"name": "updateTaxSalaryPercent",
					"outputs": [
						{
							"internalType": "bool",
							"name": "",
							"type": "bool"
						}
					],
					"stateMutability": "nonpayable",
					"type": "function"
				}
			],
			"devdoc": {
				"kind": "dev",
				"methods": {},
				"version": 1
			},
			"evm": {
				"assembly": "    /* \"contracts/Payroll.sol\":69:2732  contract Payroll {\r... */\n  mstore(0x40, 0x80)\n  callvalue\n  dup1\n  iszero\n  tag_1\n  jumpi\n  0x00\n  dup1\n  revert\ntag_1:\n  pop\n  dataSize(sub_0)\n  dup1\n  dataOffset(sub_0)\n  0x00\n  codecopy\n  0x00\n  return\nstop\n\nsub_0: assembly {\n        /* \"contracts/Payroll.sol\":69:2732  contract Payroll {\r... */\n      mstore(0x40, 0x80)\n      callvalue\n      dup1\n      iszero\n      tag_1\n      jumpi\n      0x00\n      dup1\n      revert\n    tag_1:\n      pop\n      jumpi(tag_2, lt(calldatasize, 0x04))\n      shr(0xe0, calldataload(0x00))\n      dup1\n      0x8062b3d8\n      gt\n      tag_11\n      jumpi\n      dup1\n      0x8062b3d8\n      eq\n      tag_7\n      jumpi\n      dup1\n      0x8560a8ef\n      eq\n      tag_8\n      jumpi\n      dup1\n      0x9afd2f97\n      eq\n      tag_9\n      jumpi\n      dup1\n      0xb7bcafa0\n      eq\n      tag_10\n      jumpi\n      jump(tag_2)\n    tag_11:\n      dup1\n      0x233a0f25\n      eq\n      tag_3\n      jumpi\n      dup1\n      0x4a27b35f\n      eq\n      tag_4\n      jumpi\n      dup1\n      0x6cb2e12b\n      eq\n      tag_5\n      jumpi\n      dup1\n      0x7862a56e\n      eq\n      tag_6\n      jumpi\n    tag_2:\n      0x00\n      dup1\n      revert\n        /* \"contracts/Payroll.sol\":922:1438  function updateSubscription(bytes32 _addr, bool _status) external returns(bool) {\r... */\n    tag_3:\n      tag_12\n      0x04\n      dup1\n      calldatasize\n      sub\n      dup2\n      add\n      swap1\n      tag_13\n      swap2\n      swap1\n      tag_14\n      jump\t// in\n    tag_13:\n      tag_15\n      jump\t// in\n    tag_12:\n      mload(0x40)\n      tag_16\n      swap2\n      swap1\n      tag_17\n      jump\t// in\n    tag_16:\n      mload(0x40)\n      dup1\n      swap2\n      sub\n      swap1\n      return\n        /* \"contracts/Payroll.sol\":2017:2200  function updateOthersSalaryPercent(bytes32 _addr, uint256 _amount,bytes32 _data) external returns(bool) {\r... */\n    tag_4:\n      tag_18\n      0x04\n      dup1\n      calldatasize\n      sub\n      dup2\n      add\n      swap1\n      tag_19\n      swap2\n      swap1\n      tag_20\n      jump\t// in\n    tag_19:\n      tag_21\n      jump\t// in\n    tag_18:\n      mload(0x40)\n      tag_22\n      swap2\n      swap1\n      tag_17\n      jump\t// in\n    tag_22:\n      mload(0x40)\n      dup1\n      swap2\n      sub\n      swap1\n      return\n        /* \"contracts/Payroll.sol\":1446:1627  function updateBasicSalaryPercent(bytes32 _addr, uint256 _amount,bytes32 _data) external returns(bool) {\r... */\n    tag_5:\n      tag_23\n      0x04\n      dup1\n      calldatasize\n      sub\n      dup2\n      add\n      swap1\n      tag_24\n      swap2\n      swap1\n      tag_20\n      jump\t// in\n    tag_24:\n      tag_25\n      jump\t// in\n    tag_23:\n      mload(0x40)\n      tag_26\n      swap2\n      swap1\n      tag_17\n      jump\t// in\n    tag_26:\n      mload(0x40)\n      dup1\n      swap2\n      sub\n      swap1\n      return\n        /* \"contracts/Payroll.sol\":1635:1812  function updateTaxSalaryPercent(bytes32 _addr, uint256 _amount,bytes32 _data) external returns(bool) {\r... */\n    tag_6:\n      tag_27\n      0x04\n      dup1\n      calldatasize\n      sub\n      dup2\n      add\n      swap1\n      tag_28\n      swap2\n      swap1\n      tag_20\n      jump\t// in\n    tag_28:\n      tag_29\n      jump\t// in\n    tag_27:\n      mload(0x40)\n      tag_30\n      swap2\n      swap1\n      tag_17\n      jump\t// in\n    tag_30:\n      mload(0x40)\n      dup1\n      swap2\n      sub\n      swap1\n      return\n        /* \"contracts/Payroll.sol\":2578:2729  function getSubscribedPayrollAddress() external view returns(bytes32[] memory ActiveSubscriberList) {\r... */\n    tag_7:\n      tag_31\n      tag_32\n      jump\t// in\n    tag_31:\n      mload(0x40)\n      tag_33\n      swap2\n      swap1\n      tag_34\n      jump\t// in\n    tag_33:\n      mload(0x40)\n      dup1\n      swap2\n      sub\n      swap1\n      return\n        /* \"contracts/Payroll.sol\":1824:2009  function updatePensionSalaryPercent(bytes32 _addr, uint256 _amount,bytes32 _data) external returns(bool) {\r... */\n    tag_8:\n      tag_35\n      0x04\n      dup1\n      calldatasize\n      sub\n      dup2\n      add\n      swap1\n      tag_36\n      swap2\n      swap1\n      tag_20\n      jump\t// in\n    tag_36:\n      tag_37\n      jump\t// in\n    tag_35:\n      mload(0x40)\n      tag_38\n      swap2\n      swap1\n      tag_17\n      jump\t// in\n    tag_38:\n      mload(0x40)\n      dup1\n      swap2\n      sub\n      swap1\n      return\n        /* \"contracts/Payroll.sol\":456:914  function subscribeToPayroll(bytes32 _addr, bytes32 _data) external returns(bool) {\r... */\n    tag_9:\n      tag_39\n      0x04\n      dup1\n      calldatasize\n      sub\n      dup2\n      add\n      swap1\n      tag_40\n      swap2\n      swap1\n      tag_41\n      jump\t// in\n    tag_40:\n      tag_42\n      jump\t// in\n    tag_39:\n      mload(0x40)\n      tag_43\n      swap2\n      swap1\n      tag_17\n      jump\t// in\n    tag_43:\n      mload(0x40)\n      dup1\n      swap2\n      sub\n      swap1\n      return\n        /* \"contracts/Payroll.sol\":2208:2570  function getUserPayrollInformation(bytes32 _addr,bytes32 _data) external view returns(uint256 Basic, uint256 Tax, uint256 Pension, uint256 Others) {\r... */\n    tag_10:\n      tag_44\n      0x04\n      dup1\n      calldatasize\n      sub\n      dup2\n      add\n      swap1\n      tag_45\n      swap2\n      swap1\n      tag_41\n      jump\t// in\n    tag_45:\n      tag_46\n      jump\t// in\n    tag_44:\n      mload(0x40)\n      tag_47\n      swap5\n      swap4\n      swap3\n      swap2\n      swap1\n      tag_48\n      jump\t// in\n    tag_47:\n      mload(0x40)\n      dup1\n      swap2\n      sub\n      swap1\n      return\n        /* \"contracts/Payroll.sol\":922:1438  function updateSubscription(bytes32 _addr, bool _status) external returns(bool) {\r... */\n    tag_15:\n        /* \"contracts/Payroll.sol\":996:1000  bool */\n      0x00\n        /* \"contracts/Payroll.sol\":1035:1042  _status */\n      dup2\n        /* \"contracts/Payroll.sol\":1013:1025  Subscription */\n      0x01\n        /* \"contracts/Payroll.sol\":1013:1032  Subscription[_addr] */\n      0x00\n        /* \"contracts/Payroll.sol\":1026:1031  _addr */\n      dup6\n        /* \"contracts/Payroll.sol\":1013:1032  Subscription[_addr] */\n      dup2\n      mstore\n      0x20\n      add\n      swap1\n      dup2\n      mstore\n      0x20\n      add\n      0x00\n      keccak256\n      0x00\n        /* \"contracts/Payroll.sol\":1013:1042  Subscription[_addr] = _status */\n      0x0100\n      exp\n      dup2\n      sload\n      dup2\n      0xff\n      mul\n      not\n      and\n      swap1\n      dup4\n      iszero\n      iszero\n      mul\n      or\n      swap1\n      sstore\n      pop\n        /* \"contracts/Payroll.sol\":1057:1064  _status */\n      dup2\n        /* \"contracts/Payroll.sol\":1054:1409  if(_status) {\r... */\n      iszero\n      tag_50\n      jumpi\n        /* \"contracts/Payroll.sol\":1081:1094  uint256 index */\n      0x00\n        /* \"contracts/Payroll.sol\":1097:1123  AddressIndexInSubscription */\n      0x02\n        /* \"contracts/Payroll.sol\":1097:1130  AddressIndexInSubscription[_addr] */\n      0x00\n        /* \"contracts/Payroll.sol\":1124:1129  _addr */\n      dup6\n        /* \"contracts/Payroll.sol\":1097:1130  AddressIndexInSubscription[_addr] */\n      dup2\n      mstore\n      0x20\n      add\n      swap1\n      dup2\n      mstore\n      0x20\n      add\n      0x00\n      keccak256\n      sload\n        /* \"contracts/Payroll.sol\":1081:1130  uint256 index = AddressIndexInSubscription[_addr] */\n      swap1\n      pop\n        /* \"contracts/Payroll.sol\":1190:1191  0 */\n      0x00\n        /* \"contracts/Payroll.sol\":1182:1192  bytes32(0) */\n      dup1\n      shl\n        /* \"contracts/Payroll.sol\":1145:1170  activeSubscriptionAddress */\n      0x03\n        /* \"contracts/Payroll.sol\":1177:1178  1 */\n      0x01\n        /* \"contracts/Payroll.sol\":1171:1176  index */\n      dup4\n        /* \"contracts/Payroll.sol\":1171:1178  index-1 */\n      tag_51\n      swap2\n      swap1\n      tag_52\n      jump\t// in\n    tag_51:\n        /* \"contracts/Payroll.sol\":1145:1179  activeSubscriptionAddress[index-1] */\n      dup2\n      sload\n      dup2\n      lt\n      tag_53\n      jumpi\n      tag_54\n      tag_55\n      jump\t// in\n    tag_54:\n    tag_53:\n      swap1\n      0x00\n      mstore\n      keccak256(0x00, 0x20)\n      add\n        /* \"contracts/Payroll.sol\":1145:1192  activeSubscriptionAddress[index-1] = bytes32(0) */\n      dup2\n      swap1\n      sstore\n      pop\n        /* \"contracts/Payroll.sol\":1243:1244  0 */\n      0x00\n        /* \"contracts/Payroll.sol\":1207:1233  AddressIndexInSubscription */\n      0x02\n        /* \"contracts/Payroll.sol\":1207:1240  AddressIndexInSubscription[_addr] */\n      0x00\n        /* \"contracts/Payroll.sol\":1234:1239  _addr */\n      dup7\n        /* \"contracts/Payroll.sol\":1207:1240  AddressIndexInSubscription[_addr] */\n      dup2\n      mstore\n      0x20\n      add\n      swap1\n      dup2\n      mstore\n      0x20\n      add\n      0x00\n      keccak256\n        /* \"contracts/Payroll.sol\":1207:1244  AddressIndexInSubscription[_addr] = 0 */\n      dup2\n      swap1\n      sstore\n      pop\n        /* \"contracts/Payroll.sol\":1066:1256  {\r... */\n      pop\n        /* \"contracts/Payroll.sol\":1054:1409  if(_status) {\r... */\n      jump(tag_57)\n    tag_50:\n        /* \"contracts/Payroll.sol\":1277:1302  activeSubscriptionAddress */\n      0x03\n        /* \"contracts/Payroll.sol\":1308:1313  _addr */\n      dup4\n        /* \"contracts/Payroll.sol\":1277:1314  activeSubscriptionAddress.push(_addr) */\n      swap1\n      dup1\n      0x01\n      dup2\n      sload\n      add\n      dup1\n      dup3\n      sstore\n      dup1\n      swap2\n      pop\n      pop\n      0x01\n      swap1\n      sub\n      swap1\n      0x00\n      mstore\n      keccak256(0x00, 0x20)\n      add\n      0x00\n      swap1\n      swap2\n      swap1\n      swap2\n      swap1\n      swap2\n      pop\n      sstore\n        /* \"contracts/Payroll.sol\":1365:1390  activeSubscriptionAddress */\n      0x03\n        /* \"contracts/Payroll.sol\":1365:1397  activeSubscriptionAddress.length */\n      dup1\n      sload\n      swap1\n      pop\n        /* \"contracts/Payroll.sol\":1329:1355  AddressIndexInSubscription */\n      0x02\n        /* \"contracts/Payroll.sol\":1329:1362  AddressIndexInSubscription[_addr] */\n      0x00\n        /* \"contracts/Payroll.sol\":1356:1361  _addr */\n      dup6\n        /* \"contracts/Payroll.sol\":1329:1362  AddressIndexInSubscription[_addr] */\n      dup2\n      mstore\n      0x20\n      add\n      swap1\n      dup2\n      mstore\n      0x20\n      add\n      0x00\n      keccak256\n        /* \"contracts/Payroll.sol\":1329:1397  AddressIndexInSubscription[_addr] = activeSubscriptionAddress.length */\n      dup2\n      swap1\n      sstore\n      pop\n        /* \"contracts/Payroll.sol\":1054:1409  if(_status) {\r... */\n    tag_57:\n        /* \"contracts/Payroll.sol\":1426:1430  true */\n      0x01\n        /* \"contracts/Payroll.sol\":1419:1430  return true */\n      swap1\n      pop\n        /* \"contracts/Payroll.sol\":922:1438  function updateSubscription(bytes32 _addr, bool _status) external returns(bool) {\r... */\n      swap3\n      swap2\n      pop\n      pop\n      jump\t// out\n        /* \"contracts/Payroll.sol\":2017:2200  function updateOthersSalaryPercent(bytes32 _addr, uint256 _amount,bytes32 _data) external returns(bool) {\r... */\n    tag_21:\n        /* \"contracts/Payroll.sol\":2115:2119  bool */\n      0x00\n        /* \"contracts/Payroll.sol\":2163:2170  _amount */\n      dup3\n        /* \"contracts/Payroll.sol\":2132:2139  Details */\n      0x00\n        /* \"contracts/Payroll.sol\":2132:2146  Details[_data] */\n      dup1\n        /* \"contracts/Payroll.sol\":2140:2145  _data */\n      dup5\n        /* \"contracts/Payroll.sol\":2132:2146  Details[_data] */\n      dup2\n      mstore\n      0x20\n      add\n      swap1\n      dup2\n      mstore\n      0x20\n      add\n      0x00\n      keccak256\n        /* \"contracts/Payroll.sol\":2132:2153  Details[_data][_addr] */\n      0x00\n        /* \"contracts/Payroll.sol\":2147:2152  _addr */\n      dup7\n        /* \"contracts/Payroll.sol\":2132:2153  Details[_data][_addr] */\n      dup2\n      mstore\n      0x20\n      add\n      swap1\n      dup2\n      mstore\n      0x20\n      add\n      0x00\n      keccak256\n        /* \"contracts/Payroll.sol\":2132:2160  Details[_data][_addr].others */\n      0x03\n      add\n        /* \"contracts/Payroll.sol\":2132:2170  Details[_data][_addr].others = _amount */\n      dup2\n      swap1\n      sstore\n      pop\n        /* \"contracts/Payroll.sol\":2188:2192  true */\n      0x01\n        /* \"contracts/Payroll.sol\":2181:2192  return true */\n      swap1\n      pop\n        /* \"contracts/Payroll.sol\":2017:2200  function updateOthersSalaryPercent(bytes32 _addr, uint256 _amount,bytes32 _data) external returns(bool) {\r... */\n      swap4\n      swap3\n      pop\n      pop\n      pop\n      jump\t// out\n        /* \"contracts/Payroll.sol\":1446:1627  function updateBasicSalaryPercent(bytes32 _addr, uint256 _amount,bytes32 _data) external returns(bool) {\r... */\n    tag_25:\n        /* \"contracts/Payroll.sol\":1543:1547  bool */\n      0x00\n        /* \"contracts/Payroll.sol\":1590:1597  _amount */\n      dup3\n        /* \"contracts/Payroll.sol\":1560:1567  Details */\n      0x00\n        /* \"contracts/Payroll.sol\":1560:1574  Details[_data] */\n      dup1\n        /* \"contracts/Payroll.sol\":1568:1573  _data */\n      dup5\n        /* \"contracts/Payroll.sol\":1560:1574  Details[_data] */\n      dup2\n      mstore\n      0x20\n      add\n      swap1\n      dup2\n      mstore\n      0x20\n      add\n      0x00\n      keccak256\n        /* \"contracts/Payroll.sol\":1560:1581  Details[_data][_addr] */\n      0x00\n        /* \"contracts/Payroll.sol\":1575:1580  _addr */\n      dup7\n        /* \"contracts/Payroll.sol\":1560:1581  Details[_data][_addr] */\n      dup2\n      mstore\n      0x20\n      add\n      swap1\n      dup2\n      mstore\n      0x20\n      add\n      0x00\n      keccak256\n        /* \"contracts/Payroll.sol\":1560:1587  Details[_data][_addr].basic */\n      0x00\n      add\n        /* \"contracts/Payroll.sol\":1560:1597  Details[_data][_addr].basic = _amount */\n      dup2\n      swap1\n      sstore\n      pop\n        /* \"contracts/Payroll.sol\":1615:1619  true */\n      0x01\n        /* \"contracts/Payroll.sol\":1608:1619  return true */\n      swap1\n      pop\n        /* \"contracts/Payroll.sol\":1446:1627  function updateBasicSalaryPercent(bytes32 _addr, uint256 _amount,bytes32 _data) external returns(bool) {\r... */\n      swap4\n      swap3\n      pop\n      pop\n      pop\n      jump\t// out\n        /* \"contracts/Payroll.sol\":1635:1812  function updateTaxSalaryPercent(bytes32 _addr, uint256 _amount,bytes32 _data) external returns(bool) {\r... */\n    tag_29:\n        /* \"contracts/Payroll.sol\":1730:1734  bool */\n      0x00\n        /* \"contracts/Payroll.sol\":1775:1782  _amount */\n      dup3\n        /* \"contracts/Payroll.sol\":1747:1754  Details */\n      0x00\n        /* \"contracts/Payroll.sol\":1747:1761  Details[_data] */\n      dup1\n        /* \"contracts/Payroll.sol\":1755:1760  _data */\n      dup5\n        /* \"contracts/Payroll.sol\":1747:1761  Details[_data] */\n      dup2\n      mstore\n      0x20\n      add\n      swap1\n      dup2\n      mstore\n      0x20\n      add\n      0x00\n      keccak256\n        /* \"contracts/Payroll.sol\":1747:1768  Details[_data][_addr] */\n      0x00\n        /* \"contracts/Payroll.sol\":1762:1767  _addr */\n      dup7\n        /* \"contracts/Payroll.sol\":1747:1768  Details[_data][_addr] */\n      dup2\n      mstore\n      0x20\n      add\n      swap1\n      dup2\n      mstore\n      0x20\n      add\n      0x00\n      keccak256\n        /* \"contracts/Payroll.sol\":1747:1772  Details[_data][_addr].tax */\n      0x01\n      add\n        /* \"contracts/Payroll.sol\":1747:1782  Details[_data][_addr].tax = _amount */\n      dup2\n      swap1\n      sstore\n      pop\n        /* \"contracts/Payroll.sol\":1800:1804  true */\n      0x01\n        /* \"contracts/Payroll.sol\":1793:1804  return true */\n      swap1\n      pop\n        /* \"contracts/Payroll.sol\":1635:1812  function updateTaxSalaryPercent(bytes32 _addr, uint256 _amount,bytes32 _data) external returns(bool) {\r... */\n      swap4\n      swap3\n      pop\n      pop\n      pop\n      jump\t// out\n        /* \"contracts/Payroll.sol\":2578:2729  function getSubscribedPayrollAddress() external view returns(bytes32[] memory ActiveSubscriberList) {\r... */\n    tag_32:\n        /* \"contracts/Payroll.sol\":2639:2676  bytes32[] memory ActiveSubscriberList */\n      0x60\n        /* \"contracts/Payroll.sol\":2696:2721  activeSubscriptionAddress */\n      0x03\n        /* \"contracts/Payroll.sol\":2689:2721  return activeSubscriptionAddress */\n      dup1\n      sload\n      dup1\n      0x20\n      mul\n      0x20\n      add\n      mload(0x40)\n      swap1\n      dup2\n      add\n      0x40\n      mstore\n      dup1\n      swap3\n      swap2\n      swap1\n      dup2\n      dup2\n      mstore\n      0x20\n      add\n      dup3\n      dup1\n      sload\n      dup1\n      iszero\n      tag_63\n      jumpi\n      0x20\n      mul\n      dup3\n      add\n      swap2\n      swap1\n      0x00\n      mstore\n      keccak256(0x00, 0x20)\n      swap1\n    tag_64:\n      dup2\n      sload\n      dup2\n      mstore\n      0x20\n      add\n      swap1\n      0x01\n      add\n      swap1\n      dup1\n      dup4\n      gt\n      tag_64\n      jumpi\n    tag_63:\n      pop\n      pop\n      pop\n      pop\n      pop\n      swap1\n      pop\n        /* \"contracts/Payroll.sol\":2578:2729  function getSubscribedPayrollAddress() external view returns(bytes32[] memory ActiveSubscriberList) {\r... */\n      swap1\n      jump\t// out\n        /* \"contracts/Payroll.sol\":1824:2009  function updatePensionSalaryPercent(bytes32 _addr, uint256 _amount,bytes32 _data) external returns(bool) {\r... */\n    tag_37:\n        /* \"contracts/Payroll.sol\":1923:1927  bool */\n      0x00\n        /* \"contracts/Payroll.sol\":1972:1979  _amount */\n      dup3\n        /* \"contracts/Payroll.sol\":1940:1947  Details */\n      0x00\n        /* \"contracts/Payroll.sol\":1940:1954  Details[_data] */\n      dup1\n        /* \"contracts/Payroll.sol\":1948:1953  _data */\n      dup5\n        /* \"contracts/Payroll.sol\":1940:1954  Details[_data] */\n      dup2\n      mstore\n      0x20\n      add\n      swap1\n      dup2\n      mstore\n      0x20\n      add\n      0x00\n      keccak256\n        /* \"contracts/Payroll.sol\":1940:1961  Details[_data][_addr] */\n      0x00\n        /* \"contracts/Payroll.sol\":1955:1960  _addr */\n      dup7\n        /* \"contracts/Payroll.sol\":1940:1961  Details[_data][_addr] */\n      dup2\n      mstore\n      0x20\n      add\n      swap1\n      dup2\n      mstore\n      0x20\n      add\n      0x00\n      keccak256\n        /* \"contracts/Payroll.sol\":1940:1969  Details[_data][_addr].pension */\n      0x02\n      add\n        /* \"contracts/Payroll.sol\":1940:1979  Details[_data][_addr].pension = _amount */\n      dup2\n      swap1\n      sstore\n      pop\n        /* \"contracts/Payroll.sol\":1997:2001  true */\n      0x01\n        /* \"contracts/Payroll.sol\":1990:2001  return true */\n      swap1\n      pop\n        /* \"contracts/Payroll.sol\":1824:2009  function updatePensionSalaryPercent(bytes32 _addr, uint256 _amount,bytes32 _data) external returns(bool) {\r... */\n      swap4\n      swap3\n      pop\n      pop\n      pop\n      jump\t// out\n        /* \"contracts/Payroll.sol\":456:914  function subscribeToPayroll(bytes32 _addr, bytes32 _data) external returns(bool) {\r... */\n    tag_42:\n        /* \"contracts/Payroll.sol\":531:535  bool */\n      0x00\n        /* \"contracts/Payroll.sol\":570:574  true */\n      0x01\n        /* \"contracts/Payroll.sol\":548:560  Subscription */\n      dup1\n        /* \"contracts/Payroll.sol\":548:567  Subscription[_addr] */\n      0x00\n        /* \"contracts/Payroll.sol\":561:566  _addr */\n      dup6\n        /* \"contracts/Payroll.sol\":548:567  Subscription[_addr] */\n      dup2\n      mstore\n      0x20\n      add\n      swap1\n      dup2\n      mstore\n      0x20\n      add\n      0x00\n      keccak256\n      0x00\n        /* \"contracts/Payroll.sol\":548:574  Subscription[_addr] = true */\n      0x0100\n      exp\n      dup2\n      sload\n      dup2\n      0xff\n      mul\n      not\n      and\n      swap1\n      dup4\n      iszero\n      iszero\n      mul\n      or\n      swap1\n      sstore\n      pop\n        /* \"contracts/Payroll.sol\":585:617  DeductionDetails storage details */\n      0x00\n        /* \"contracts/Payroll.sol\":620:627  Details */\n      dup1\n        /* \"contracts/Payroll.sol\":620:634  Details[_data] */\n      0x00\n        /* \"contracts/Payroll.sol\":628:633  _data */\n      dup5\n        /* \"contracts/Payroll.sol\":620:634  Details[_data] */\n      dup2\n      mstore\n      0x20\n      add\n      swap1\n      dup2\n      mstore\n      0x20\n      add\n      0x00\n      keccak256\n        /* \"contracts/Payroll.sol\":620:641  Details[_data][_addr] */\n      0x00\n        /* \"contracts/Payroll.sol\":635:640  _addr */\n      dup6\n        /* \"contracts/Payroll.sol\":620:641  Details[_data][_addr] */\n      dup2\n      mstore\n      0x20\n      add\n      swap1\n      dup2\n      mstore\n      0x20\n      add\n      0x00\n      keccak256\n        /* \"contracts/Payroll.sol\":585:641  DeductionDetails storage details = Details[_data][_addr] */\n      swap1\n      pop\n        /* \"contracts/Payroll.sol\":668:670  60 */\n      0x3c\n        /* \"contracts/Payroll.sol\":652:659  details */\n      dup2\n        /* \"contracts/Payroll.sol\":652:665  details.basic */\n      0x00\n      add\n        /* \"contracts/Payroll.sol\":652:670  details.basic = 60 */\n      dup2\n      swap1\n      sstore\n      pop\n        /* \"contracts/Payroll.sol\":698:700  15 */\n      0x0f\n        /* \"contracts/Payroll.sol\":681:688  details */\n      dup2\n        /* \"contracts/Payroll.sol\":681:695  details.others */\n      0x03\n      add\n        /* \"contracts/Payroll.sol\":681:700  details.others = 15 */\n      dup2\n      swap1\n      sstore\n      pop\n        /* \"contracts/Payroll.sol\":725:727  20 */\n      0x14\n        /* \"contracts/Payroll.sol\":711:718  details */\n      dup2\n        /* \"contracts/Payroll.sol\":711:722  details.tax */\n      0x01\n      add\n        /* \"contracts/Payroll.sol\":711:727  details.tax = 20 */\n      dup2\n      swap1\n      sstore\n      pop\n        /* \"contracts/Payroll.sol\":756:757  5 */\n      0x05\n        /* \"contracts/Payroll.sol\":738:745  details */\n      dup2\n        /* \"contracts/Payroll.sol\":738:753  details.pension */\n      0x02\n      add\n        /* \"contracts/Payroll.sol\":738:757  details.pension = 5 */\n      dup2\n      swap1\n      sstore\n      pop\n        /* \"contracts/Payroll.sol\":768:793  activeSubscriptionAddress */\n      0x03\n        /* \"contracts/Payroll.sol\":799:804  _addr */\n      dup5\n        /* \"contracts/Payroll.sol\":768:805  activeSubscriptionAddress.push(_addr) */\n      swap1\n      dup1\n      0x01\n      dup2\n      sload\n      add\n      dup1\n      dup3\n      sstore\n      dup1\n      swap2\n      pop\n      pop\n      0x01\n      swap1\n      sub\n      swap1\n      0x00\n      mstore\n      keccak256(0x00, 0x20)\n      add\n      0x00\n      swap1\n      swap2\n      swap1\n      swap2\n      swap1\n      swap2\n      pop\n      sstore\n        /* \"contracts/Payroll.sol\":852:877  activeSubscriptionAddress */\n      0x03\n        /* \"contracts/Payroll.sol\":852:884  activeSubscriptionAddress.length */\n      dup1\n      sload\n      swap1\n      pop\n        /* \"contracts/Payroll.sol\":816:842  AddressIndexInSubscription */\n      0x02\n        /* \"contracts/Payroll.sol\":816:849  AddressIndexInSubscription[_addr] */\n      0x00\n        /* \"contracts/Payroll.sol\":843:848  _addr */\n      dup7\n        /* \"contracts/Payroll.sol\":816:849  AddressIndexInSubscription[_addr] */\n      dup2\n      mstore\n      0x20\n      add\n      swap1\n      dup2\n      mstore\n      0x20\n      add\n      0x00\n      keccak256\n        /* \"contracts/Payroll.sol\":816:884  AddressIndexInSubscription[_addr] = activeSubscriptionAddress.length */\n      dup2\n      swap1\n      sstore\n      pop\n        /* \"contracts/Payroll.sol\":902:906  true */\n      0x01\n        /* \"contracts/Payroll.sol\":895:906  return true */\n      swap2\n      pop\n      pop\n        /* \"contracts/Payroll.sol\":456:914  function subscribeToPayroll(bytes32 _addr, bytes32 _data) external returns(bool) {\r... */\n      swap3\n      swap2\n      pop\n      pop\n      jump\t// out\n        /* \"contracts/Payroll.sol\":2208:2570  function getUserPayrollInformation(bytes32 _addr,bytes32 _data) external view returns(uint256 Basic, uint256 Tax, uint256 Pension, uint256 Others) {\r... */\n    tag_46:\n        /* \"contracts/Payroll.sol\":2294:2307  uint256 Basic */\n      0x00\n        /* \"contracts/Payroll.sol\":2309:2320  uint256 Tax */\n      dup1\n        /* \"contracts/Payroll.sol\":2322:2337  uint256 Pension */\n      0x00\n        /* \"contracts/Payroll.sol\":2339:2353  uint256 Others */\n      dup1\n        /* \"contracts/Payroll.sol\":2366:2397  DeductionDetails memory details */\n      0x00\n        /* \"contracts/Payroll.sol\":2400:2407  Details */\n      dup1\n        /* \"contracts/Payroll.sol\":2400:2414  Details[_data] */\n      0x00\n        /* \"contracts/Payroll.sol\":2408:2413  _data */\n      dup8\n        /* \"contracts/Payroll.sol\":2400:2414  Details[_data] */\n      dup2\n      mstore\n      0x20\n      add\n      swap1\n      dup2\n      mstore\n      0x20\n      add\n      0x00\n      keccak256\n        /* \"contracts/Payroll.sol\":2400:2421  Details[_data][_addr] */\n      0x00\n        /* \"contracts/Payroll.sol\":2415:2420  _addr */\n      dup9\n        /* \"contracts/Payroll.sol\":2400:2421  Details[_data][_addr] */\n      dup2\n      mstore\n      0x20\n      add\n      swap1\n      dup2\n      mstore\n      0x20\n      add\n      0x00\n      keccak256\n        /* \"contracts/Payroll.sol\":2366:2421  DeductionDetails memory details = Details[_data][_addr] */\n      mload(0x40)\n      dup1\n      0x80\n      add\n      0x40\n      mstore\n      swap1\n      dup2\n      0x00\n      dup3\n      add\n      sload\n      dup2\n      mstore\n      0x20\n      add\n      0x01\n      dup3\n      add\n      sload\n      dup2\n      mstore\n      0x20\n      add\n      0x02\n      dup3\n      add\n      sload\n      dup2\n      mstore\n      0x20\n      add\n      0x03\n      dup3\n      add\n      sload\n      dup2\n      mstore\n      pop\n      pop\n      swap1\n      pop\n        /* \"contracts/Payroll.sol\":2453:2460  details */\n      dup1\n        /* \"contracts/Payroll.sol\":2453:2466  details.basic */\n      0x00\n      add\n      mload\n        /* \"contracts/Payroll.sol\":2481:2488  details */\n      dup2\n        /* \"contracts/Payroll.sol\":2481:2492  details.tax */\n      0x20\n      add\n      mload\n        /* \"contracts/Payroll.sol\":2507:2514  details */\n      dup3\n        /* \"contracts/Payroll.sol\":2507:2522  details.pension */\n      0x40\n      add\n      mload\n        /* \"contracts/Payroll.sol\":2537:2544  details */\n      dup4\n        /* \"contracts/Payroll.sol\":2537:2551  details.others */\n      0x60\n      add\n      mload\n        /* \"contracts/Payroll.sol\":2432:2562  return(\r... */\n      swap5\n      pop\n      swap5\n      pop\n      swap5\n      pop\n      swap5\n      pop\n      pop\n        /* \"contracts/Payroll.sol\":2208:2570  function getUserPayrollInformation(bytes32 _addr,bytes32 _data) external view returns(uint256 Basic, uint256 Tax, uint256 Pension, uint256 Others) {\r... */\n      swap3\n      swap6\n      swap2\n      swap5\n      pop\n      swap3\n      pop\n      jump\t// out\n        /* \"#utility.yul\":7:140   */\n    tag_70:\n        /* \"#utility.yul\":50:55   */\n      0x00\n        /* \"#utility.yul\":88:94   */\n      dup2\n        /* \"#utility.yul\":75:95   */\n      calldataload\n        /* \"#utility.yul\":66:95   */\n      swap1\n      pop\n        /* \"#utility.yul\":104:134   */\n      tag_72\n        /* \"#utility.yul\":128:133   */\n      dup2\n        /* \"#utility.yul\":104:134   */\n      tag_73\n      jump\t// in\n    tag_72:\n        /* \"#utility.yul\":7:140   */\n      swap3\n      swap2\n      pop\n      pop\n      jump\t// out\n        /* \"#utility.yul\":146:285   */\n    tag_74:\n        /* \"#utility.yul\":192:197   */\n      0x00\n        /* \"#utility.yul\":230:236   */\n      dup2\n        /* \"#utility.yul\":217:237   */\n      calldataload\n        /* \"#utility.yul\":208:237   */\n      swap1\n      pop\n        /* \"#utility.yul\":246:279   */\n      tag_76\n        /* \"#utility.yul\":273:278   */\n      dup2\n        /* \"#utility.yul\":246:279   */\n      tag_77\n      jump\t// in\n    tag_76:\n        /* \"#utility.yul\":146:285   */\n      swap3\n      swap2\n      pop\n      pop\n      jump\t// out\n        /* \"#utility.yul\":291:430   */\n    tag_78:\n        /* \"#utility.yul\":337:342   */\n      0x00\n        /* \"#utility.yul\":375:381   */\n      dup2\n        /* \"#utility.yul\":362:382   */\n      calldataload\n        /* \"#utility.yul\":353:382   */\n      swap1\n      pop\n        /* \"#utility.yul\":391:424   */\n      tag_80\n        /* \"#utility.yul\":418:423   */\n      dup2\n        /* \"#utility.yul\":391:424   */\n      tag_81\n      jump\t// in\n    tag_80:\n        /* \"#utility.yul\":291:430   */\n      swap3\n      swap2\n      pop\n      pop\n      jump\t// out\n        /* \"#utility.yul\":436:904   */\n    tag_14:\n        /* \"#utility.yul\":501:507   */\n      0x00\n        /* \"#utility.yul\":509:515   */\n      dup1\n        /* \"#utility.yul\":558:560   */\n      0x40\n        /* \"#utility.yul\":546:555   */\n      dup4\n        /* \"#utility.yul\":537:544   */\n      dup6\n        /* \"#utility.yul\":533:556   */\n      sub\n        /* \"#utility.yul\":529:561   */\n      slt\n        /* \"#utility.yul\":526:645   */\n      iszero\n      tag_83\n      jumpi\n        /* \"#utility.yul\":564:643   */\n      tag_84\n      tag_85\n      jump\t// in\n    tag_84:\n        /* \"#utility.yul\":526:645   */\n    tag_83:\n        /* \"#utility.yul\":684:685   */\n      0x00\n        /* \"#utility.yul\":709:762   */\n      tag_86\n        /* \"#utility.yul\":754:761   */\n      dup6\n        /* \"#utility.yul\":745:751   */\n      dup3\n        /* \"#utility.yul\":734:743   */\n      dup7\n        /* \"#utility.yul\":730:752   */\n      add\n        /* \"#utility.yul\":709:762   */\n      tag_74\n      jump\t// in\n    tag_86:\n        /* \"#utility.yul\":699:762   */\n      swap3\n      pop\n        /* \"#utility.yul\":655:772   */\n      pop\n        /* \"#utility.yul\":811:813   */\n      0x20\n        /* \"#utility.yul\":837:887   */\n      tag_87\n        /* \"#utility.yul\":879:886   */\n      dup6\n        /* \"#utility.yul\":870:876   */\n      dup3\n        /* \"#utility.yul\":859:868   */\n      dup7\n        /* \"#utility.yul\":855:877   */\n      add\n        /* \"#utility.yul\":837:887   */\n      tag_70\n      jump\t// in\n    tag_87:\n        /* \"#utility.yul\":827:887   */\n      swap2\n      pop\n        /* \"#utility.yul\":782:897   */\n      pop\n        /* \"#utility.yul\":436:904   */\n      swap3\n      pop\n      swap3\n      swap1\n      pop\n      jump\t// out\n        /* \"#utility.yul\":910:1384   */\n    tag_41:\n        /* \"#utility.yul\":978:984   */\n      0x00\n        /* \"#utility.yul\":986:992   */\n      dup1\n        /* \"#utility.yul\":1035:1037   */\n      0x40\n        /* \"#utility.yul\":1023:1032   */\n      dup4\n        /* \"#utility.yul\":1014:1021   */\n      dup6\n        /* \"#utility.yul\":1010:1033   */\n      sub\n        /* \"#utility.yul\":1006:1038   */\n      slt\n        /* \"#utility.yul\":1003:1122   */\n      iszero\n      tag_89\n      jumpi\n        /* \"#utility.yul\":1041:1120   */\n      tag_90\n      tag_85\n      jump\t// in\n    tag_90:\n        /* \"#utility.yul\":1003:1122   */\n    tag_89:\n        /* \"#utility.yul\":1161:1162   */\n      0x00\n        /* \"#utility.yul\":1186:1239   */\n      tag_91\n        /* \"#utility.yul\":1231:1238   */\n      dup6\n        /* \"#utility.yul\":1222:1228   */\n      dup3\n        /* \"#utility.yul\":1211:1220   */\n      dup7\n        /* \"#utility.yul\":1207:1229   */\n      add\n        /* \"#utility.yul\":1186:1239   */\n      tag_74\n      jump\t// in\n    tag_91:\n        /* \"#utility.yul\":1176:1239   */\n      swap3\n      pop\n        /* \"#utility.yul\":1132:1249   */\n      pop\n        /* \"#utility.yul\":1288:1290   */\n      0x20\n        /* \"#utility.yul\":1314:1367   */\n      tag_92\n        /* \"#utility.yul\":1359:1366   */\n      dup6\n        /* \"#utility.yul\":1350:1356   */\n      dup3\n        /* \"#utility.yul\":1339:1348   */\n      dup7\n        /* \"#utility.yul\":1335:1357   */\n      add\n        /* \"#utility.yul\":1314:1367   */\n      tag_74\n      jump\t// in\n    tag_92:\n        /* \"#utility.yul\":1304:1367   */\n      swap2\n      pop\n        /* \"#utility.yul\":1259:1377   */\n      pop\n        /* \"#utility.yul\":910:1384   */\n      swap3\n      pop\n      swap3\n      swap1\n      pop\n      jump\t// out\n        /* \"#utility.yul\":1390:2009   */\n    tag_20:\n        /* \"#utility.yul\":1467:1473   */\n      0x00\n        /* \"#utility.yul\":1475:1481   */\n      dup1\n        /* \"#utility.yul\":1483:1489   */\n      0x00\n        /* \"#utility.yul\":1532:1534   */\n      0x60\n        /* \"#utility.yul\":1520:1529   */\n      dup5\n        /* \"#utility.yul\":1511:1518   */\n      dup7\n        /* \"#utility.yul\":1507:1530   */\n      sub\n        /* \"#utility.yul\":1503:1535   */\n      slt\n        /* \"#utility.yul\":1500:1619   */\n      iszero\n      tag_94\n      jumpi\n        /* \"#utility.yul\":1538:1617   */\n      tag_95\n      tag_85\n      jump\t// in\n    tag_95:\n        /* \"#utility.yul\":1500:1619   */\n    tag_94:\n        /* \"#utility.yul\":1658:1659   */\n      0x00\n        /* \"#utility.yul\":1683:1736   */\n      tag_96\n        /* \"#utility.yul\":1728:1735   */\n      dup7\n        /* \"#utility.yul\":1719:1725   */\n      dup3\n        /* \"#utility.yul\":1708:1717   */\n      dup8\n        /* \"#utility.yul\":1704:1726   */\n      add\n        /* \"#utility.yul\":1683:1736   */\n      tag_74\n      jump\t// in\n    tag_96:\n        /* \"#utility.yul\":1673:1736   */\n      swap4\n      pop\n        /* \"#utility.yul\":1629:1746   */\n      pop\n        /* \"#utility.yul\":1785:1787   */\n      0x20\n        /* \"#utility.yul\":1811:1864   */\n      tag_97\n        /* \"#utility.yul\":1856:1863   */\n      dup7\n        /* \"#utility.yul\":1847:1853   */\n      dup3\n        /* \"#utility.yul\":1836:1845   */\n      dup8\n        /* \"#utility.yul\":1832:1854   */\n      add\n        /* \"#utility.yul\":1811:1864   */\n      tag_78\n      jump\t// in\n    tag_97:\n        /* \"#utility.yul\":1801:1864   */\n      swap3\n      pop\n        /* \"#utility.yul\":1756:1874   */\n      pop\n        /* \"#utility.yul\":1913:1915   */\n      0x40\n        /* \"#utility.yul\":1939:1992   */\n      tag_98\n        /* \"#utility.yul\":1984:1991   */\n      dup7\n        /* \"#utility.yul\":1975:1981   */\n      dup3\n        /* \"#utility.yul\":1964:1973   */\n      dup8\n        /* \"#utility.yul\":1960:1982   */\n      add\n        /* \"#utility.yul\":1939:1992   */\n      tag_74\n      jump\t// in\n    tag_98:\n        /* \"#utility.yul\":1929:1992   */\n      swap2\n      pop\n        /* \"#utility.yul\":1884:2002   */\n      pop\n        /* \"#utility.yul\":1390:2009   */\n      swap3\n      pop\n      swap3\n      pop\n      swap3\n      jump\t// out\n        /* \"#utility.yul\":2015:2194   */\n    tag_99:\n        /* \"#utility.yul\":2084:2094   */\n      0x00\n        /* \"#utility.yul\":2105:2151   */\n      tag_101\n        /* \"#utility.yul\":2147:2150   */\n      dup4\n        /* \"#utility.yul\":2139:2145   */\n      dup4\n        /* \"#utility.yul\":2105:2151   */\n      tag_102\n      jump\t// in\n    tag_101:\n        /* \"#utility.yul\":2183:2187   */\n      0x20\n        /* \"#utility.yul\":2178:2181   */\n      dup4\n        /* \"#utility.yul\":2174:2188   */\n      add\n        /* \"#utility.yul\":2160:2188   */\n      swap1\n      pop\n        /* \"#utility.yul\":2015:2194   */\n      swap3\n      swap2\n      pop\n      pop\n      jump\t// out\n        /* \"#utility.yul\":2230:2962   */\n    tag_103:\n        /* \"#utility.yul\":2349:2352   */\n      0x00\n        /* \"#utility.yul\":2378:2432   */\n      tag_105\n        /* \"#utility.yul\":2426:2431   */\n      dup3\n        /* \"#utility.yul\":2378:2432   */\n      tag_106\n      jump\t// in\n    tag_105:\n        /* \"#utility.yul\":2448:2534   */\n      tag_107\n        /* \"#utility.yul\":2527:2533   */\n      dup2\n        /* \"#utility.yul\":2522:2525   */\n      dup6\n        /* \"#utility.yul\":2448:2534   */\n      tag_108\n      jump\t// in\n    tag_107:\n        /* \"#utility.yul\":2441:2534   */\n      swap4\n      pop\n        /* \"#utility.yul\":2558:2614   */\n      tag_109\n        /* \"#utility.yul\":2608:2613   */\n      dup4\n        /* \"#utility.yul\":2558:2614   */\n      tag_110\n      jump\t// in\n    tag_109:\n        /* \"#utility.yul\":2637:2644   */\n      dup1\n        /* \"#utility.yul\":2668:2669   */\n      0x00\n        /* \"#utility.yul\":2653:2937   */\n    tag_111:\n        /* \"#utility.yul\":2678:2684   */\n      dup4\n        /* \"#utility.yul\":2675:2676   */\n      dup2\n        /* \"#utility.yul\":2672:2685   */\n      lt\n        /* \"#utility.yul\":2653:2937   */\n      iszero\n      tag_113\n      jumpi\n        /* \"#utility.yul\":2754:2760   */\n      dup2\n        /* \"#utility.yul\":2748:2761   */\n      mload\n        /* \"#utility.yul\":2781:2844   */\n      tag_114\n        /* \"#utility.yul\":2840:2843   */\n      dup9\n        /* \"#utility.yul\":2825:2838   */\n      dup3\n        /* \"#utility.yul\":2781:2844   */\n      tag_99\n      jump\t// in\n    tag_114:\n        /* \"#utility.yul\":2774:2844   */\n      swap8\n      pop\n        /* \"#utility.yul\":2867:2927   */\n      tag_115\n        /* \"#utility.yul\":2920:2926   */\n      dup4\n        /* \"#utility.yul\":2867:2927   */\n      tag_116\n      jump\t// in\n    tag_115:\n        /* \"#utility.yul\":2857:2927   */\n      swap3\n      pop\n        /* \"#utility.yul\":2713:2937   */\n      pop\n        /* \"#utility.yul\":2700:2701   */\n      0x01\n        /* \"#utility.yul\":2697:2698   */\n      dup2\n        /* \"#utility.yul\":2693:2702   */\n      add\n        /* \"#utility.yul\":2688:2702   */\n      swap1\n      pop\n        /* \"#utility.yul\":2653:2937   */\n      jump(tag_111)\n    tag_113:\n        /* \"#utility.yul\":2657:2671   */\n      pop\n        /* \"#utility.yul\":2953:2956   */\n      dup6\n        /* \"#utility.yul\":2946:2956   */\n      swap4\n      pop\n        /* \"#utility.yul\":2354:2962   */\n      pop\n      pop\n      pop\n        /* \"#utility.yul\":2230:2962   */\n      swap3\n      swap2\n      pop\n      pop\n      jump\t// out\n        /* \"#utility.yul\":2968:3077   */\n    tag_117:\n        /* \"#utility.yul\":3049:3070   */\n      tag_119\n        /* \"#utility.yul\":3064:3069   */\n      dup2\n        /* \"#utility.yul\":3049:3070   */\n      tag_120\n      jump\t// in\n    tag_119:\n        /* \"#utility.yul\":3044:3047   */\n      dup3\n        /* \"#utility.yul\":3037:3071   */\n      mstore\n        /* \"#utility.yul\":2968:3077   */\n      pop\n      pop\n      jump\t// out\n        /* \"#utility.yul\":3083:3191   */\n    tag_102:\n        /* \"#utility.yul\":3160:3184   */\n      tag_122\n        /* \"#utility.yul\":3178:3183   */\n      dup2\n        /* \"#utility.yul\":3160:3184   */\n      tag_123\n      jump\t// in\n    tag_122:\n        /* \"#utility.yul\":3155:3158   */\n      dup3\n        /* \"#utility.yul\":3148:3185   */\n      mstore\n        /* \"#utility.yul\":3083:3191   */\n      pop\n      pop\n      jump\t// out\n        /* \"#utility.yul\":3197:3315   */\n    tag_124:\n        /* \"#utility.yul\":3284:3308   */\n      tag_126\n        /* \"#utility.yul\":3302:3307   */\n      dup2\n        /* \"#utility.yul\":3284:3308   */\n      tag_127\n      jump\t// in\n    tag_126:\n        /* \"#utility.yul\":3279:3282   */\n      dup3\n        /* \"#utility.yul\":3272:3309   */\n      mstore\n        /* \"#utility.yul\":3197:3315   */\n      pop\n      pop\n      jump\t// out\n        /* \"#utility.yul\":3321:3694   */\n    tag_34:\n        /* \"#utility.yul\":3464:3468   */\n      0x00\n        /* \"#utility.yul\":3502:3504   */\n      0x20\n        /* \"#utility.yul\":3491:3500   */\n      dup3\n        /* \"#utility.yul\":3487:3505   */\n      add\n        /* \"#utility.yul\":3479:3505   */\n      swap1\n      pop\n        /* \"#utility.yul\":3551:3560   */\n      dup2\n        /* \"#utility.yul\":3545:3549   */\n      dup2\n        /* \"#utility.yul\":3541:3561   */\n      sub\n        /* \"#utility.yul\":3537:3538   */\n      0x00\n        /* \"#utility.yul\":3526:3535   */\n      dup4\n        /* \"#utility.yul\":3522:3539   */\n      add\n        /* \"#utility.yul\":3515:3562   */\n      mstore\n        /* \"#utility.yul\":3579:3687   */\n      tag_129\n        /* \"#utility.yul\":3682:3686   */\n      dup2\n        /* \"#utility.yul\":3673:3679   */\n      dup5\n        /* \"#utility.yul\":3579:3687   */\n      tag_103\n      jump\t// in\n    tag_129:\n        /* \"#utility.yul\":3571:3687   */\n      swap1\n      pop\n        /* \"#utility.yul\":3321:3694   */\n      swap3\n      swap2\n      pop\n      pop\n      jump\t// out\n        /* \"#utility.yul\":3700:3910   */\n    tag_17:\n        /* \"#utility.yul\":3787:3791   */\n      0x00\n        /* \"#utility.yul\":3825:3827   */\n      0x20\n        /* \"#utility.yul\":3814:3823   */\n      dup3\n        /* \"#utility.yul\":3810:3828   */\n      add\n        /* \"#utility.yul\":3802:3828   */\n      swap1\n      pop\n        /* \"#utility.yul\":3838:3903   */\n      tag_131\n        /* \"#utility.yul\":3900:3901   */\n      0x00\n        /* \"#utility.yul\":3889:3898   */\n      dup4\n        /* \"#utility.yul\":3885:3902   */\n      add\n        /* \"#utility.yul\":3876:3882   */\n      dup5\n        /* \"#utility.yul\":3838:3903   */\n      tag_117\n      jump\t// in\n    tag_131:\n        /* \"#utility.yul\":3700:3910   */\n      swap3\n      swap2\n      pop\n      pop\n      jump\t// out\n        /* \"#utility.yul\":3916:4469   */\n    tag_48:\n        /* \"#utility.yul\":4093:4097   */\n      0x00\n        /* \"#utility.yul\":4131:4134   */\n      0x80\n        /* \"#utility.yul\":4120:4129   */\n      dup3\n        /* \"#utility.yul\":4116:4135   */\n      add\n        /* \"#utility.yul\":4108:4135   */\n      swap1\n      pop\n        /* \"#utility.yul\":4145:4216   */\n      tag_133\n        /* \"#utility.yul\":4213:4214   */\n      0x00\n        /* \"#utility.yul\":4202:4211   */\n      dup4\n        /* \"#utility.yul\":4198:4215   */\n      add\n        /* \"#utility.yul\":4189:4195   */\n      dup8\n        /* \"#utility.yul\":4145:4216   */\n      tag_124\n      jump\t// in\n    tag_133:\n        /* \"#utility.yul\":4226:4298   */\n      tag_134\n        /* \"#utility.yul\":4294:4296   */\n      0x20\n        /* \"#utility.yul\":4283:4292   */\n      dup4\n        /* \"#utility.yul\":4279:4297   */\n      add\n        /* \"#utility.yul\":4270:4276   */\n      dup7\n        /* \"#utility.yul\":4226:4298   */\n      tag_124\n      jump\t// in\n    tag_134:\n        /* \"#utility.yul\":4308:4380   */\n      tag_135\n        /* \"#utility.yul\":4376:4378   */\n      0x40\n        /* \"#utility.yul\":4365:4374   */\n      dup4\n        /* \"#utility.yul\":4361:4379   */\n      add\n        /* \"#utility.yul\":4352:4358   */\n      dup6\n        /* \"#utility.yul\":4308:4380   */\n      tag_124\n      jump\t// in\n    tag_135:\n        /* \"#utility.yul\":4390:4462   */\n      tag_136\n        /* \"#utility.yul\":4458:4460   */\n      0x60\n        /* \"#utility.yul\":4447:4456   */\n      dup4\n        /* \"#utility.yul\":4443:4461   */\n      add\n        /* \"#utility.yul\":4434:4440   */\n      dup5\n        /* \"#utility.yul\":4390:4462   */\n      tag_124\n      jump\t// in\n    tag_136:\n        /* \"#utility.yul\":3916:4469   */\n      swap6\n      swap5\n      pop\n      pop\n      pop\n      pop\n      pop\n      jump\t// out\n        /* \"#utility.yul\":4556:4688   */\n    tag_110:\n        /* \"#utility.yul\":4623:4627   */\n      0x00\n        /* \"#utility.yul\":4646:4649   */\n      dup2\n        /* \"#utility.yul\":4638:4649   */\n      swap1\n      pop\n        /* \"#utility.yul\":4676:4680   */\n      0x20\n        /* \"#utility.yul\":4671:4674   */\n      dup3\n        /* \"#utility.yul\":4667:4681   */\n      add\n        /* \"#utility.yul\":4659:4681   */\n      swap1\n      pop\n        /* \"#utility.yul\":4556:4688   */\n      swap2\n      swap1\n      pop\n      jump\t// out\n        /* \"#utility.yul\":4694:4808   */\n    tag_106:\n        /* \"#utility.yul\":4761:4767   */\n      0x00\n        /* \"#utility.yul\":4795:4800   */\n      dup2\n        /* \"#utility.yul\":4789:4801   */\n      mload\n        /* \"#utility.yul\":4779:4801   */\n      swap1\n      pop\n        /* \"#utility.yul\":4694:4808   */\n      swap2\n      swap1\n      pop\n      jump\t// out\n        /* \"#utility.yul\":4814:4927   */\n    tag_116:\n        /* \"#utility.yul\":4884:4888   */\n      0x00\n        /* \"#utility.yul\":4916:4920   */\n      0x20\n        /* \"#utility.yul\":4911:4914   */\n      dup3\n        /* \"#utility.yul\":4907:4921   */\n      add\n        /* \"#utility.yul\":4899:4921   */\n      swap1\n      pop\n        /* \"#utility.yul\":4814:4927   */\n      swap2\n      swap1\n      pop\n      jump\t// out\n        /* \"#utility.yul\":4933:5117   */\n    tag_108:\n        /* \"#utility.yul\":5032:5043   */\n      0x00\n        /* \"#utility.yul\":5066:5072   */\n      dup3\n        /* \"#utility.yul\":5061:5064   */\n      dup3\n        /* \"#utility.yul\":5054:5073   */\n      mstore\n        /* \"#utility.yul\":5106:5110   */\n      0x20\n        /* \"#utility.yul\":5101:5104   */\n      dup3\n        /* \"#utility.yul\":5097:5111   */\n      add\n        /* \"#utility.yul\":5082:5111   */\n      swap1\n      pop\n        /* \"#utility.yul\":4933:5117   */\n      swap3\n      swap2\n      pop\n      pop\n      jump\t// out\n        /* \"#utility.yul\":5123:5314   */\n    tag_52:\n        /* \"#utility.yul\":5163:5167   */\n      0x00\n        /* \"#utility.yul\":5183:5203   */\n      tag_144\n        /* \"#utility.yul\":5201:5202   */\n      dup3\n        /* \"#utility.yul\":5183:5203   */\n      tag_127\n      jump\t// in\n    tag_144:\n        /* \"#utility.yul\":5178:5203   */\n      swap2\n      pop\n        /* \"#utility.yul\":5217:5237   */\n      tag_145\n        /* \"#utility.yul\":5235:5236   */\n      dup4\n        /* \"#utility.yul\":5217:5237   */\n      tag_127\n      jump\t// in\n    tag_145:\n        /* \"#utility.yul\":5212:5237   */\n      swap3\n      pop\n        /* \"#utility.yul\":5256:5257   */\n      dup3\n        /* \"#utility.yul\":5253:5254   */\n      dup3\n        /* \"#utility.yul\":5250:5258   */\n      lt\n        /* \"#utility.yul\":5247:5281   */\n      iszero\n      tag_146\n      jumpi\n        /* \"#utility.yul\":5261:5279   */\n      tag_147\n      tag_148\n      jump\t// in\n    tag_147:\n        /* \"#utility.yul\":5247:5281   */\n    tag_146:\n        /* \"#utility.yul\":5306:5307   */\n      dup3\n        /* \"#utility.yul\":5303:5304   */\n      dup3\n        /* \"#utility.yul\":5299:5308   */\n      sub\n        /* \"#utility.yul\":5291:5308   */\n      swap1\n      pop\n        /* \"#utility.yul\":5123:5314   */\n      swap3\n      swap2\n      pop\n      pop\n      jump\t// out\n        /* \"#utility.yul\":5320:5410   */\n    tag_120:\n        /* \"#utility.yul\":5354:5361   */\n      0x00\n        /* \"#utility.yul\":5397:5402   */\n      dup2\n        /* \"#utility.yul\":5390:5403   */\n      iszero\n        /* \"#utility.yul\":5383:5404   */\n      iszero\n        /* \"#utility.yul\":5372:5404   */\n      swap1\n      pop\n        /* \"#utility.yul\":5320:5410   */\n      swap2\n      swap1\n      pop\n      jump\t// out\n        /* \"#utility.yul\":5416:5493   */\n    tag_123:\n        /* \"#utility.yul\":5453:5460   */\n      0x00\n        /* \"#utility.yul\":5482:5487   */\n      dup2\n        /* \"#utility.yul\":5471:5487   */\n      swap1\n      pop\n        /* \"#utility.yul\":5416:5493   */\n      swap2\n      swap1\n      pop\n      jump\t// out\n        /* \"#utility.yul\":5499:5576   */\n    tag_127:\n        /* \"#utility.yul\":5536:5543   */\n      0x00\n        /* \"#utility.yul\":5565:5570   */\n      dup2\n        /* \"#utility.yul\":5554:5570   */\n      swap1\n      pop\n        /* \"#utility.yul\":5499:5576   */\n      swap2\n      swap1\n      pop\n      jump\t// out\n        /* \"#utility.yul\":5582:5762   */\n    tag_148:\n        /* \"#utility.yul\":5630:5707   */\n      0x4e487b7100000000000000000000000000000000000000000000000000000000\n        /* \"#utility.yul\":5627:5628   */\n      0x00\n        /* \"#utility.yul\":5620:5708   */\n      mstore\n        /* \"#utility.yul\":5727:5731   */\n      0x11\n        /* \"#utility.yul\":5724:5725   */\n      0x04\n        /* \"#utility.yul\":5717:5732   */\n      mstore\n        /* \"#utility.yul\":5751:5755   */\n      0x24\n        /* \"#utility.yul\":5748:5749   */\n      0x00\n        /* \"#utility.yul\":5741:5756   */\n      revert\n        /* \"#utility.yul\":5768:5948   */\n    tag_55:\n        /* \"#utility.yul\":5816:5893   */\n      0x4e487b7100000000000000000000000000000000000000000000000000000000\n        /* \"#utility.yul\":5813:5814   */\n      0x00\n        /* \"#utility.yul\":5806:5894   */\n      mstore\n        /* \"#utility.yul\":5913:5917   */\n      0x32\n        /* \"#utility.yul\":5910:5911   */\n      0x04\n        /* \"#utility.yul\":5903:5918   */\n      mstore\n        /* \"#utility.yul\":5937:5941   */\n      0x24\n        /* \"#utility.yul\":5934:5935   */\n      0x00\n        /* \"#utility.yul\":5927:5942   */\n      revert\n        /* \"#utility.yul\":6077:6194   */\n    tag_85:\n        /* \"#utility.yul\":6186:6187   */\n      0x00\n        /* \"#utility.yul\":6183:6184   */\n      dup1\n        /* \"#utility.yul\":6176:6188   */\n      revert\n        /* \"#utility.yul\":6200:6316   */\n    tag_73:\n        /* \"#utility.yul\":6270:6291   */\n      tag_158\n        /* \"#utility.yul\":6285:6290   */\n      dup2\n        /* \"#utility.yul\":6270:6291   */\n      tag_120\n      jump\t// in\n    tag_158:\n        /* \"#utility.yul\":6263:6268   */\n      dup2\n        /* \"#utility.yul\":6260:6292   */\n      eq\n        /* \"#utility.yul\":6250:6310   */\n      tag_159\n      jumpi\n        /* \"#utility.yul\":6306:6307   */\n      0x00\n        /* \"#utility.yul\":6303:6304   */\n      dup1\n        /* \"#utility.yul\":6296:6308   */\n      revert\n        /* \"#utility.yul\":6250:6310   */\n    tag_159:\n        /* \"#utility.yul\":6200:6316   */\n      pop\n      jump\t// out\n        /* \"#utility.yul\":6322:6444   */\n    tag_77:\n        /* \"#utility.yul\":6395:6419   */\n      tag_161\n        /* \"#utility.yul\":6413:6418   */\n      dup2\n        /* \"#utility.yul\":6395:6419   */\n      tag_123\n      jump\t// in\n    tag_161:\n        /* \"#utility.yul\":6388:6393   */\n      dup2\n        /* \"#utility.yul\":6385:6420   */\n      eq\n        /* \"#utility.yul\":6375:6438   */\n      tag_162\n      jumpi\n        /* \"#utility.yul\":6434:6435   */\n      0x00\n        /* \"#utility.yul\":6431:6432   */\n      dup1\n        /* \"#utility.yul\":6424:6436   */\n      revert\n        /* \"#utility.yul\":6375:6438   */\n    tag_162:\n        /* \"#utility.yul\":6322:6444   */\n      pop\n      jump\t// out\n        /* \"#utility.yul\":6450:6572   */\n    tag_81:\n        /* \"#utility.yul\":6523:6547   */\n      tag_164\n        /* \"#utility.yul\":6541:6546   */\n      dup2\n        /* \"#utility.yul\":6523:6547   */\n      tag_127\n      jump\t// in\n    tag_164:\n        /* \"#utility.yul\":6516:6521   */\n      dup2\n        /* \"#utility.yul\":6513:6548   */\n      eq\n        /* \"#utility.yul\":6503:6566   */\n      tag_165\n      jumpi\n        /* \"#utility.yul\":6562:6563   */\n      0x00\n        /* \"#utility.yul\":6559:6560   */\n      dup1\n        /* \"#utility.yul\":6552:6564   */\n      revert\n        /* \"#utility.yul\":6503:6566   */\n    tag_165:\n        /* \"#utility.yul\":6450:6572   */\n      pop\n      jump\t// out\n\n    auxdata: 0xa2646970667358221220420f3ecfe87ae86280e4b0defcb686cda0d579f795b6a7435b8d90aa3c1d159c64736f6c63430008070033\n}\n",
				"bytecode": {
					"linkReferences": {},
					"object": "608060405234801561001057600080fd5b50610918806100206000396000f3fe608060405234801561001057600080fd5b50600436106100885760003560e01c80638062b3d81161005b5780638062b3d81461014d5780638560a8ef1461016b5780639afd2f971461019b578063b7bcafa0146101cb57610088565b8063233a0f251461008d5780634a27b35f146100bd5780636cb2e12b146100ed5780637862a56e1461011d575b600080fd5b6100a760048036038101906100a291906105b5565b6101fe565b6040516100b4919061074d565b60405180910390f35b6100d760048036038101906100d29190610635565b6102eb565b6040516100e4919061074d565b60405180910390f35b61010760048036038101906101029190610635565b610323565b604051610114919061074d565b60405180910390f35b61013760048036038101906101329190610635565b61035b565b604051610144919061074d565b60405180910390f35b610155610393565b604051610162919061072b565b60405180910390f35b61018560048036038101906101809190610635565b6103eb565b604051610192919061074d565b60405180910390f35b6101b560048036038101906101b091906105f5565b610423565b6040516101c2919061074d565b60405180910390f35b6101e560048036038101906101e091906105f5565b6104f0565b6040516101f59493929190610768565b60405180910390f35b6000816001600085815260200190815260200160002060006101000a81548160ff021916908315150217905550811561029a576000600260008581526020019081526020016000205490506000801b600360018361025c91906107e6565b8154811061026d5761026c610869565b5b906000526020600020018190555060006002600086815260200190815260200160002081905550506102e1565b600383908060018154018082558091505060019003906000526020600020016000909190919091505560038054905060026000858152602001908152602001600020819055505b6001905092915050565b600082600080848152602001908152602001600020600086815260200190815260200160002060030181905550600190509392505050565b600082600080848152602001908152602001600020600086815260200190815260200160002060000181905550600190509392505050565b600082600080848152602001908152602001600020600086815260200190815260200160002060010181905550600190509392505050565b606060038054806020026020016040519081016040528092919081815260200182805480156103e157602002820191906000526020600020905b8154815260200190600101908083116103cd575b5050505050905090565b600082600080848152602001908152602001600020600086815260200190815260200160002060020181905550600190509392505050565b6000600180600085815260200190815260200160002060006101000a81548160ff021916908315150217905550600080600084815260200190815260200160002060008581526020019081526020016000209050603c8160000181905550600f8160030181905550601481600101819055506005816002018190555060038490806001815401808255809150506001900390600052602060002001600090919091909150556003805490506002600086815260200190815260200160002081905550600191505092915050565b600080600080600080600087815260200190815260200160002060008881526020019081526020016000206040518060800160405290816000820154815260200160018201548152602001600282015481526020016003820154815250509050806000015181602001518260400151836060015194509450945094505092959194509250565b6000813590506105858161089d565b92915050565b60008135905061059a816108b4565b92915050565b6000813590506105af816108cb565b92915050565b600080604083850312156105cc576105cb610898565b5b60006105da8582860161058b565b92505060206105eb85828601610576565b9150509250929050565b6000806040838503121561060c5761060b610898565b5b600061061a8582860161058b565b925050602061062b8582860161058b565b9150509250929050565b60008060006060848603121561064e5761064d610898565b5b600061065c8682870161058b565b935050602061066d868287016105a0565b925050604061067e8682870161058b565b9150509250925092565b6000610694838361070d565b60208301905092915050565b60006106ab826107bd565b6106b581856107d5565b93506106c0836107ad565b8060005b838110156106f15781516106d88882610688565b97506106e3836107c8565b9250506001810190506106c4565b5085935050505092915050565b6107078161081a565b82525050565b61071681610826565b82525050565b61072581610830565b82525050565b6000602082019050818103600083015261074581846106a0565b905092915050565b600060208201905061076260008301846106fe565b92915050565b600060808201905061077d600083018761071c565b61078a602083018661071c565b610797604083018561071c565b6107a4606083018461071c565b95945050505050565b6000819050602082019050919050565b600081519050919050565b6000602082019050919050565b600082825260208201905092915050565b60006107f182610830565b91506107fc83610830565b92508282101561080f5761080e61083a565b5b828203905092915050565b60008115159050919050565b6000819050919050565b6000819050919050565b7f4e487b7100000000000000000000000000000000000000000000000000000000600052601160045260246000fd5b7f4e487b7100000000000000000000000000000000000000000000000000000000600052603260045260246000fd5b600080fd5b6108a68161081a565b81146108b157600080fd5b50565b6108bd81610826565b81146108c857600080fd5b50565b6108d481610830565b81146108df57600080fd5b5056fea2646970667358221220420f3ecfe87ae86280e4b0defcb686cda0d579f795b6a7435b8d90aa3c1d159c64736f6c63430008070033",
					"opcodes": "PUSH1 0x80 PUSH1 0x40 MSTORE CALLVALUE DUP1 ISZERO PUSH2 0x10 JUMPI PUSH1 0x0 DUP1 REVERT JUMPDEST POP PUSH2 0x918 DUP1 PUSH2 0x20 PUSH1 0x0 CODECOPY PUSH1 0x0 RETURN INVALID PUSH1 0x80 PUSH1 0x40 MSTORE CALLVALUE DUP1 ISZERO PUSH2 0x10 JUMPI PUSH1 0x0 DUP1 REVERT JUMPDEST POP PUSH1 0x4 CALLDATASIZE LT PUSH2 0x88 JUMPI PUSH1 0x0 CALLDATALOAD PUSH1 0xE0 SHR DUP1 PUSH4 0x8062B3D8 GT PUSH2 0x5B JUMPI DUP1 PUSH4 0x8062B3D8 EQ PUSH2 0x14D JUMPI DUP1 PUSH4 0x8560A8EF EQ PUSH2 0x16B JUMPI DUP1 PUSH4 0x9AFD2F97 EQ PUSH2 0x19B JUMPI DUP1 PUSH4 0xB7BCAFA0 EQ PUSH2 0x1CB JUMPI PUSH2 0x88 JUMP JUMPDEST DUP1 PUSH4 0x233A0F25 EQ PUSH2 0x8D JUMPI DUP1 PUSH4 0x4A27B35F EQ PUSH2 0xBD JUMPI DUP1 PUSH4 0x6CB2E12B EQ PUSH2 0xED JUMPI DUP1 PUSH4 0x7862A56E EQ PUSH2 0x11D JUMPI JUMPDEST PUSH1 0x0 DUP1 REVERT JUMPDEST PUSH2 0xA7 PUSH1 0x4 DUP1 CALLDATASIZE SUB DUP2 ADD SWAP1 PUSH2 0xA2 SWAP2 SWAP1 PUSH2 0x5B5 JUMP JUMPDEST PUSH2 0x1FE JUMP JUMPDEST PUSH1 0x40 MLOAD PUSH2 0xB4 SWAP2 SWAP1 PUSH2 0x74D JUMP JUMPDEST PUSH1 0x40 MLOAD DUP1 SWAP2 SUB SWAP1 RETURN JUMPDEST PUSH2 0xD7 PUSH1 0x4 DUP1 CALLDATASIZE SUB DUP2 ADD SWAP1 PUSH2 0xD2 SWAP2 SWAP1 PUSH2 0x635 JUMP JUMPDEST PUSH2 0x2EB JUMP JUMPDEST PUSH1 0x40 MLOAD PUSH2 0xE4 SWAP2 SWAP1 PUSH2 0x74D JUMP JUMPDEST PUSH1 0x40 MLOAD DUP1 SWAP2 SUB SWAP1 RETURN JUMPDEST PUSH2 0x107 PUSH1 0x4 DUP1 CALLDATASIZE SUB DUP2 ADD SWAP1 PUSH2 0x102 SWAP2 SWAP1 PUSH2 0x635 JUMP JUMPDEST PUSH2 0x323 JUMP JUMPDEST PUSH1 0x40 MLOAD PUSH2 0x114 SWAP2 SWAP1 PUSH2 0x74D JUMP JUMPDEST PUSH1 0x40 MLOAD DUP1 SWAP2 SUB SWAP1 RETURN JUMPDEST PUSH2 0x137 PUSH1 0x4 DUP1 CALLDATASIZE SUB DUP2 ADD SWAP1 PUSH2 0x132 SWAP2 SWAP1 PUSH2 0x635 JUMP JUMPDEST PUSH2 0x35B JUMP JUMPDEST PUSH1 0x40 MLOAD PUSH2 0x144 SWAP2 SWAP1 PUSH2 0x74D JUMP JUMPDEST PUSH1 0x40 MLOAD DUP1 SWAP2 SUB SWAP1 RETURN JUMPDEST PUSH2 0x155 PUSH2 0x393 JUMP JUMPDEST PUSH1 0x40 MLOAD PUSH2 0x162 SWAP2 SWAP1 PUSH2 0x72B JUMP JUMPDEST PUSH1 0x40 MLOAD DUP1 SWAP2 SUB SWAP1 RETURN JUMPDEST PUSH2 0x185 PUSH1 0x4 DUP1 CALLDATASIZE SUB DUP2 ADD SWAP1 PUSH2 0x180 SWAP2 SWAP1 PUSH2 0x635 JUMP JUMPDEST PUSH2 0x3EB JUMP JUMPDEST PUSH1 0x40 MLOAD PUSH2 0x192 SWAP2 SWAP1 PUSH2 0x74D JUMP JUMPDEST PUSH1 0x40 MLOAD DUP1 SWAP2 SUB SWAP1 RETURN JUMPDEST PUSH2 0x1B5 PUSH1 0x4 DUP1 CALLDATASIZE SUB DUP2 ADD SWAP1 PUSH2 0x1B0 SWAP2 SWAP1 PUSH2 0x5F5 JUMP JUMPDEST PUSH2 0x423 JUMP JUMPDEST PUSH1 0x40 MLOAD PUSH2 0x1C2 SWAP2 SWAP1 PUSH2 0x74D JUMP JUMPDEST PUSH1 0x40 MLOAD DUP1 SWAP2 SUB SWAP1 RETURN JUMPDEST PUSH2 0x1E5 PUSH1 0x4 DUP1 CALLDATASIZE SUB DUP2 ADD SWAP1 PUSH2 0x1E0 SWAP2 SWAP1 PUSH2 0x5F5 JUMP JUMPDEST PUSH2 0x4F0 JUMP JUMPDEST PUSH1 0x40 MLOAD PUSH2 0x1F5 SWAP5 SWAP4 SWAP3 SWAP2 SWAP1 PUSH2 0x768 JUMP JUMPDEST PUSH1 0x40 MLOAD DUP1 SWAP2 SUB SWAP1 RETURN JUMPDEST PUSH1 0x0 DUP2 PUSH1 0x1 PUSH1 0x0 DUP6 DUP2 MSTORE PUSH1 0x20 ADD SWAP1 DUP2 MSTORE PUSH1 0x20 ADD PUSH1 0x0 KECCAK256 PUSH1 0x0 PUSH2 0x100 EXP DUP2 SLOAD DUP2 PUSH1 0xFF MUL NOT AND SWAP1 DUP4 ISZERO ISZERO MUL OR SWAP1 SSTORE POP DUP2 ISZERO PUSH2 0x29A JUMPI PUSH1 0x0 PUSH1 0x2 PUSH1 0x0 DUP6 DUP2 MSTORE PUSH1 0x20 ADD SWAP1 DUP2 MSTORE PUSH1 0x20 ADD PUSH1 0x0 KECCAK256 SLOAD SWAP1 POP PUSH1 0x0 DUP1 SHL PUSH1 0x3 PUSH1 0x1 DUP4 PUSH2 0x25C SWAP2 SWAP1 PUSH2 0x7E6 JUMP JUMPDEST DUP2 SLOAD DUP2 LT PUSH2 0x26D JUMPI PUSH2 0x26C PUSH2 0x869 JUMP JUMPDEST JUMPDEST SWAP1 PUSH1 0x0 MSTORE PUSH1 0x20 PUSH1 0x0 KECCAK256 ADD DUP2 SWAP1 SSTORE POP PUSH1 0x0 PUSH1 0x2 PUSH1 0x0 DUP7 DUP2 MSTORE PUSH1 0x20 ADD SWAP1 DUP2 MSTORE PUSH1 0x20 ADD PUSH1 0x0 KECCAK256 DUP2 SWAP1 SSTORE POP POP PUSH2 0x2E1 JUMP JUMPDEST PUSH1 0x3 DUP4 SWAP1 DUP1 PUSH1 0x1 DUP2 SLOAD ADD DUP1 DUP3 SSTORE DUP1 SWAP2 POP POP PUSH1 0x1 SWAP1 SUB SWAP1 PUSH1 0x0 MSTORE PUSH1 0x20 PUSH1 0x0 KECCAK256 ADD PUSH1 0x0 SWAP1 SWAP2 SWAP1 SWAP2 SWAP1 SWAP2 POP SSTORE PUSH1 0x3 DUP1 SLOAD SWAP1 POP PUSH1 0x2 PUSH1 0x0 DUP6 DUP2 MSTORE PUSH1 0x20 ADD SWAP1 DUP2 MSTORE PUSH1 0x20 ADD PUSH1 0x0 KECCAK256 DUP2 SWAP1 SSTORE POP JUMPDEST PUSH1 0x1 SWAP1 POP SWAP3 SWAP2 POP POP JUMP JUMPDEST PUSH1 0x0 DUP3 PUSH1 0x0 DUP1 DUP5 DUP2 MSTORE PUSH1 0x20 ADD SWAP1 DUP2 MSTORE PUSH1 0x20 ADD PUSH1 0x0 KECCAK256 PUSH1 0x0 DUP7 DUP2 MSTORE PUSH1 0x20 ADD SWAP1 DUP2 MSTORE PUSH1 0x20 ADD PUSH1 0x0 KECCAK256 PUSH1 0x3 ADD DUP2 SWAP1 SSTORE POP PUSH1 0x1 SWAP1 POP SWAP4 SWAP3 POP POP POP JUMP JUMPDEST PUSH1 0x0 DUP3 PUSH1 0x0 DUP1 DUP5 DUP2 MSTORE PUSH1 0x20 ADD SWAP1 DUP2 MSTORE PUSH1 0x20 ADD PUSH1 0x0 KECCAK256 PUSH1 0x0 DUP7 DUP2 MSTORE PUSH1 0x20 ADD SWAP1 DUP2 MSTORE PUSH1 0x20 ADD PUSH1 0x0 KECCAK256 PUSH1 0x0 ADD DUP2 SWAP1 SSTORE POP PUSH1 0x1 SWAP1 POP SWAP4 SWAP3 POP POP POP JUMP JUMPDEST PUSH1 0x0 DUP3 PUSH1 0x0 DUP1 DUP5 DUP2 MSTORE PUSH1 0x20 ADD SWAP1 DUP2 MSTORE PUSH1 0x20 ADD PUSH1 0x0 KECCAK256 PUSH1 0x0 DUP7 DUP2 MSTORE PUSH1 0x20 ADD SWAP1 DUP2 MSTORE PUSH1 0x20 ADD PUSH1 0x0 KECCAK256 PUSH1 0x1 ADD DUP2 SWAP1 SSTORE POP PUSH1 0x1 SWAP1 POP SWAP4 SWAP3 POP POP POP JUMP JUMPDEST PUSH1 0x60 PUSH1 0x3 DUP1 SLOAD DUP1 PUSH1 0x20 MUL PUSH1 0x20 ADD PUSH1 0x40 MLOAD SWAP1 DUP2 ADD PUSH1 0x40 MSTORE DUP1 SWAP3 SWAP2 SWAP1 DUP2 DUP2 MSTORE PUSH1 0x20 ADD DUP3 DUP1 SLOAD DUP1 ISZERO PUSH2 0x3E1 JUMPI PUSH1 0x20 MUL DUP3 ADD SWAP2 SWAP1 PUSH1 0x0 MSTORE PUSH1 0x20 PUSH1 0x0 KECCAK256 SWAP1 JUMPDEST DUP2 SLOAD DUP2 MSTORE PUSH1 0x20 ADD SWAP1 PUSH1 0x1 ADD SWAP1 DUP1 DUP4 GT PUSH2 0x3CD JUMPI JUMPDEST POP POP POP POP POP SWAP1 POP SWAP1 JUMP JUMPDEST PUSH1 0x0 DUP3 PUSH1 0x0 DUP1 DUP5 DUP2 MSTORE PUSH1 0x20 ADD SWAP1 DUP2 MSTORE PUSH1 0x20 ADD PUSH1 0x0 KECCAK256 PUSH1 0x0 DUP7 DUP2 MSTORE PUSH1 0x20 ADD SWAP1 DUP2 MSTORE PUSH1 0x20 ADD PUSH1 0x0 KECCAK256 PUSH1 0x2 ADD DUP2 SWAP1 SSTORE POP PUSH1 0x1 SWAP1 POP SWAP4 SWAP3 POP POP POP JUMP JUMPDEST PUSH1 0x0 PUSH1 0x1 DUP1 PUSH1 0x0 DUP6 DUP2 MSTORE PUSH1 0x20 ADD SWAP1 DUP2 MSTORE PUSH1 0x20 ADD PUSH1 0x0 KECCAK256 PUSH1 0x0 PUSH2 0x100 EXP DUP2 SLOAD DUP2 PUSH1 0xFF MUL NOT AND SWAP1 DUP4 ISZERO ISZERO MUL OR SWAP1 SSTORE POP PUSH1 0x0 DUP1 PUSH1 0x0 DUP5 DUP2 MSTORE PUSH1 0x20 ADD SWAP1 DUP2 MSTORE PUSH1 0x20 ADD PUSH1 0x0 KECCAK256 PUSH1 0x0 DUP6 DUP2 MSTORE PUSH1 0x20 ADD SWAP1 DUP2 MSTORE PUSH1 0x20 ADD PUSH1 0x0 KECCAK256 SWAP1 POP PUSH1 0x3C DUP2 PUSH1 0x0 ADD DUP2 SWAP1 SSTORE POP PUSH1 0xF DUP2 PUSH1 0x3 ADD DUP2 SWAP1 SSTORE POP PUSH1 0x14 DUP2 PUSH1 0x1 ADD DUP2 SWAP1 SSTORE POP PUSH1 0x5 DUP2 PUSH1 0x2 ADD DUP2 SWAP1 SSTORE POP PUSH1 0x3 DUP5 SWAP1 DUP1 PUSH1 0x1 DUP2 SLOAD ADD DUP1 DUP3 SSTORE DUP1 SWAP2 POP POP PUSH1 0x1 SWAP1 SUB SWAP1 PUSH1 0x0 MSTORE PUSH1 0x20 PUSH1 0x0 KECCAK256 ADD PUSH1 0x0 SWAP1 SWAP2 SWAP1 SWAP2 SWAP1 SWAP2 POP SSTORE PUSH1 0x3 DUP1 SLOAD SWAP1 POP PUSH1 0x2 PUSH1 0x0 DUP7 DUP2 MSTORE PUSH1 0x20 ADD SWAP1 DUP2 MSTORE PUSH1 0x20 ADD PUSH1 0x0 KECCAK256 DUP2 SWAP1 SSTORE POP PUSH1 0x1 SWAP2 POP POP SWAP3 SWAP2 POP POP JUMP JUMPDEST PUSH1 0x0 DUP1 PUSH1 0x0 DUP1 PUSH1 0x0 DUP1 PUSH1 0x0 DUP8 DUP2 MSTORE PUSH1 0x20 ADD SWAP1 DUP2 MSTORE PUSH1 0x20 ADD PUSH1 0x0 KECCAK256 PUSH1 0x0 DUP9 DUP2 MSTORE PUSH1 0x20 ADD SWAP1 DUP2 MSTORE PUSH1 0x20 ADD PUSH1 0x0 KECCAK256 PUSH1 0x40 MLOAD DUP1 PUSH1 0x80 ADD PUSH1 0x40 MSTORE SWAP1 DUP2 PUSH1 0x0 DUP3 ADD SLOAD DUP2 MSTORE PUSH1 0x20 ADD PUSH1 0x1 DUP3 ADD SLOAD DUP2 MSTORE PUSH1 0x20 ADD PUSH1 0x2 DUP3 ADD SLOAD DUP2 MSTORE PUSH1 0x20 ADD PUSH1 0x3 DUP3 ADD SLOAD DUP2 MSTORE POP POP SWAP1 POP DUP1 PUSH1 0x0 ADD MLOAD DUP2 PUSH1 0x20 ADD MLOAD DUP3 PUSH1 0x40 ADD MLOAD DUP4 PUSH1 0x60 ADD MLOAD SWAP5 POP SWAP5 POP SWAP5 POP SWAP5 POP POP SWAP3 SWAP6 SWAP2 SWAP5 POP SWAP3 POP JUMP JUMPDEST PUSH1 0x0 DUP2 CALLDATALOAD SWAP1 POP PUSH2 0x585 DUP2 PUSH2 0x89D JUMP JUMPDEST SWAP3 SWAP2 POP POP JUMP JUMPDEST PUSH1 0x0 DUP2 CALLDATALOAD SWAP1 POP PUSH2 0x59A DUP2 PUSH2 0x8B4 JUMP JUMPDEST SWAP3 SWAP2 POP POP JUMP JUMPDEST PUSH1 0x0 DUP2 CALLDATALOAD SWAP1 POP PUSH2 0x5AF DUP2 PUSH2 0x8CB JUMP JUMPDEST SWAP3 SWAP2 POP POP JUMP JUMPDEST PUSH1 0x0 DUP1 PUSH1 0x40 DUP4 DUP6 SUB SLT ISZERO PUSH2 0x5CC JUMPI PUSH2 0x5CB PUSH2 0x898 JUMP JUMPDEST JUMPDEST PUSH1 0x0 PUSH2 0x5DA DUP6 DUP3 DUP7 ADD PUSH2 0x58B JUMP JUMPDEST SWAP3 POP POP PUSH1 0x20 PUSH2 0x5EB DUP6 DUP3 DUP7 ADD PUSH2 0x576 JUMP JUMPDEST SWAP2 POP POP SWAP3 POP SWAP3 SWAP1 POP JUMP JUMPDEST PUSH1 0x0 DUP1 PUSH1 0x40 DUP4 DUP6 SUB SLT ISZERO PUSH2 0x60C JUMPI PUSH2 0x60B PUSH2 0x898 JUMP JUMPDEST JUMPDEST PUSH1 0x0 PUSH2 0x61A DUP6 DUP3 DUP7 ADD PUSH2 0x58B JUMP JUMPDEST SWAP3 POP POP PUSH1 0x20 PUSH2 0x62B DUP6 DUP3 DUP7 ADD PUSH2 0x58B JUMP JUMPDEST SWAP2 POP POP SWAP3 POP SWAP3 SWAP1 POP JUMP JUMPDEST PUSH1 0x0 DUP1 PUSH1 0x0 PUSH1 0x60 DUP5 DUP7 SUB SLT ISZERO PUSH2 0x64E JUMPI PUSH2 0x64D PUSH2 0x898 JUMP JUMPDEST JUMPDEST PUSH1 0x0 PUSH2 0x65C DUP7 DUP3 DUP8 ADD PUSH2 0x58B JUMP JUMPDEST SWAP4 POP POP PUSH1 0x20 PUSH2 0x66D DUP7 DUP3 DUP8 ADD PUSH2 0x5A0 JUMP JUMPDEST SWAP3 POP POP PUSH1 0x40 PUSH2 0x67E DUP7 DUP3 DUP8 ADD PUSH2 0x58B JUMP JUMPDEST SWAP2 POP POP SWAP3 POP SWAP3 POP SWAP3 JUMP JUMPDEST PUSH1 0x0 PUSH2 0x694 DUP4 DUP4 PUSH2 0x70D JUMP JUMPDEST PUSH1 0x20 DUP4 ADD SWAP1 POP SWAP3 SWAP2 POP POP JUMP JUMPDEST PUSH1 0x0 PUSH2 0x6AB DUP3 PUSH2 0x7BD JUMP JUMPDEST PUSH2 0x6B5 DUP2 DUP6 PUSH2 0x7D5 JUMP JUMPDEST SWAP4 POP PUSH2 0x6C0 DUP4 PUSH2 0x7AD JUMP JUMPDEST DUP1 PUSH1 0x0 JUMPDEST DUP4 DUP2 LT ISZERO PUSH2 0x6F1 JUMPI DUP2 MLOAD PUSH2 0x6D8 DUP9 DUP3 PUSH2 0x688 JUMP JUMPDEST SWAP8 POP PUSH2 0x6E3 DUP4 PUSH2 0x7C8 JUMP JUMPDEST SWAP3 POP POP PUSH1 0x1 DUP2 ADD SWAP1 POP PUSH2 0x6C4 JUMP JUMPDEST POP DUP6 SWAP4 POP POP POP POP SWAP3 SWAP2 POP POP JUMP JUMPDEST PUSH2 0x707 DUP2 PUSH2 0x81A JUMP JUMPDEST DUP3 MSTORE POP POP JUMP JUMPDEST PUSH2 0x716 DUP2 PUSH2 0x826 JUMP JUMPDEST DUP3 MSTORE POP POP JUMP JUMPDEST PUSH2 0x725 DUP2 PUSH2 0x830 JUMP JUMPDEST DUP3 MSTORE POP POP JUMP JUMPDEST PUSH1 0x0 PUSH1 0x20 DUP3 ADD SWAP1 POP DUP2 DUP2 SUB PUSH1 0x0 DUP4 ADD MSTORE PUSH2 0x745 DUP2 DUP5 PUSH2 0x6A0 JUMP JUMPDEST SWAP1 POP SWAP3 SWAP2 POP POP JUMP JUMPDEST PUSH1 0x0 PUSH1 0x20 DUP3 ADD SWAP1 POP PUSH2 0x762 PUSH1 0x0 DUP4 ADD DUP5 PUSH2 0x6FE JUMP JUMPDEST SWAP3 SWAP2 POP POP JUMP JUMPDEST PUSH1 0x0 PUSH1 0x80 DUP3 ADD SWAP1 POP PUSH2 0x77D PUSH1 0x0 DUP4 ADD DUP8 PUSH2 0x71C JUMP JUMPDEST PUSH2 0x78A PUSH1 0x20 DUP4 ADD DUP7 PUSH2 0x71C JUMP JUMPDEST PUSH2 0x797 PUSH1 0x40 DUP4 ADD DUP6 PUSH2 0x71C JUMP JUMPDEST PUSH2 0x7A4 PUSH1 0x60 DUP4 ADD DUP5 PUSH2 0x71C JUMP JUMPDEST SWAP6 SWAP5 POP POP POP POP POP JUMP JUMPDEST PUSH1 0x0 DUP2 SWAP1 POP PUSH1 0x20 DUP3 ADD SWAP1 POP SWAP2 SWAP1 POP JUMP JUMPDEST PUSH1 0x0 DUP2 MLOAD SWAP1 POP SWAP2 SWAP1 POP JUMP JUMPDEST PUSH1 0x0 PUSH1 0x20 DUP3 ADD SWAP1 POP SWAP2 SWAP1 POP JUMP JUMPDEST PUSH1 0x0 DUP3 DUP3 MSTORE PUSH1 0x20 DUP3 ADD SWAP1 POP SWAP3 SWAP2 POP POP JUMP JUMPDEST PUSH1 0x0 PUSH2 0x7F1 DUP3 PUSH2 0x830 JUMP JUMPDEST SWAP2 POP PUSH2 0x7FC DUP4 PUSH2 0x830 JUMP JUMPDEST SWAP3 POP DUP3 DUP3 LT ISZERO PUSH2 0x80F JUMPI PUSH2 0x80E PUSH2 0x83A JUMP JUMPDEST JUMPDEST DUP3 DUP3 SUB SWAP1 POP SWAP3 SWAP2 POP POP JUMP JUMPDEST PUSH1 0x0 DUP2 ISZERO ISZERO SWAP1 POP SWAP2 SWAP1 POP JUMP JUMPDEST PUSH1 0x0 DUP2 SWAP1 POP SWAP2 SWAP1 POP JUMP JUMPDEST PUSH1 0x0 DUP2 SWAP1 POP SWAP2 SWAP1 POP JUMP JUMPDEST PUSH32 0x4E487B7100000000000000000000000000000000000000000000000000000000 PUSH1 0x0 MSTORE PUSH1 0x11 PUSH1 0x4 MSTORE PUSH1 0x24 PUSH1 0x0 REVERT JUMPDEST PUSH32 0x4E487B7100000000000000000000000000000000000000000000000000000000 PUSH1 0x0 MSTORE PUSH1 0x32 PUSH1 0x4 MSTORE PUSH1 0x24 PUSH1 0x0 REVERT JUMPDEST PUSH1 0x0 DUP1 REVERT JUMPDEST PUSH2 0x8A6 DUP2 PUSH2 0x81A JUMP JUMPDEST DUP2 EQ PUSH2 0x8B1 JUMPI PUSH1 0x0 DUP1 REVERT JUMPDEST POP JUMP JUMPDEST PUSH2 0x8BD DUP2 PUSH2 0x826 JUMP JUMPDEST DUP2 EQ PUSH2 0x8C8 JUMPI PUSH1 0x0 DUP1 REVERT JUMPDEST POP JUMP JUMPDEST PUSH2 0x8D4 DUP2 PUSH2 0x830 JUMP JUMPDEST DUP2 EQ PUSH2 0x8DF JUMPI PUSH1 0x0 DUP1 REVERT JUMPDEST POP JUMP INVALID LOG2 PUSH5 0x6970667358 0x22 SLT KECCAK256 TIMESTAMP 0xF RETURNDATACOPY 0xCF 0xE8 PUSH27 0xE86280E4B0DEFCB686CDA0D579F795B6A7435B8D90AA3C1D159C64 PUSH20 0x6F6C634300080700330000000000000000000000 "
				},
				"gasEstimates": {
					"creation": {
						"codeDepositCost": "465600",
						"executionCost": "499",
						"totalCost": "466099"
					},
					"external": {
						"getSubscribedPayrollAddress()": "infinite",
						"getUserPayrollInformation(bytes32,bytes32)": "infinite",
						"subscribeToPayroll(bytes32,bytes32)": "infinite",
						"updateBasicSalaryPercent(bytes32,uint256,bytes32)": "infinite",
						"updateOthersSalaryPercent(bytes32,uint256,bytes32)": "infinite",
						"updatePensionSalaryPercent(bytes32,uint256,bytes32)": "infinite",
						"updateSubscription(bytes32,bool)": "infinite",
						"updateTaxSalaryPercent(bytes32,uint256,bytes32)": "infinite"
					}
				},
				"methodIdentifiers": {
					"getSubscribedPayrollAddress()": "8062b3d8",
					"getUserPayrollInformation(bytes32,bytes32)": "b7bcafa0",
					"subscribeToPayroll(bytes32,bytes32)": "9afd2f97",
					"updateBasicSalaryPercent(bytes32,uint256,bytes32)": "6cb2e12b",
					"updateOthersSalaryPercent(bytes32,uint256,bytes32)": "4a27b35f",
					"updatePensionSalaryPercent(bytes32,uint256,bytes32)": "8560a8ef",
					"updateSubscription(bytes32,bool)": "233a0f25",
					"updateTaxSalaryPercent(bytes32,uint256,bytes32)": "7862a56e"
				}
			},
			"storageLayout": {
				"storage": [
					{
						"astId": 17,
						"contract": "contracts/Payroll.sol:Payroll",
						"label": "Details",
						"offset": 0,
						"slot": "0",
						"type": "t_mapping(t_bytes32,t_mapping(t_bytes32,t_struct(DeductionDetails)10_storage))"
					},
					{
						"astId": 21,
						"contract": "contracts/Payroll.sol:Payroll",
						"label": "Subscription",
						"offset": 0,
						"slot": "1",
						"type": "t_mapping(t_bytes32,t_bool)"
					},
					{
						"astId": 25,
						"contract": "contracts/Payroll.sol:Payroll",
						"label": "AddressIndexInSubscription",
						"offset": 0,
						"slot": "2",
						"type": "t_mapping(t_bytes32,t_uint256)"
					},
					{
						"astId": 28,
						"contract": "contracts/Payroll.sol:Payroll",
						"label": "activeSubscriptionAddress",
						"offset": 0,
						"slot": "3",
						"type": "t_array(t_bytes32)dyn_storage"
					}
				],
				"types": {
					"t_array(t_bytes32)dyn_storage": {
						"base": "t_bytes32",
						"encoding": "dynamic_array",
						"label": "bytes32[]",
						"numberOfBytes": "32"
					},
					"t_bool": {
						"encoding": "inplace",
						"label": "bool",
						"numberOfBytes": "1"
					},
					"t_bytes32": {
						"encoding": "inplace",
						"label": "bytes32",
						"numberOfBytes": "32"
					},
					"t_mapping(t_bytes32,t_bool)": {
						"encoding": "mapping",
						"key": "t_bytes32",
						"label": "mapping(bytes32 => bool)",
						"numberOfBytes": "32",
						"value": "t_bool"
					},
					"t_mapping(t_bytes32,t_mapping(t_bytes32,t_struct(DeductionDetails)10_storage))": {
						"encoding": "mapping",
						"key": "t_bytes32",
						"label": "mapping(bytes32 => mapping(bytes32 => struct Payroll.DeductionDetails))",
						"numberOfBytes": "32",
						"value": "t_mapping(t_bytes32,t_struct(DeductionDetails)10_storage)"
					},
					"t_mapping(t_bytes32,t_struct(DeductionDetails)10_storage)": {
						"encoding": "mapping",
						"key": "t_bytes32",
						"label": "mapping(bytes32 => struct Payroll.DeductionDetails)",
						"numberOfBytes": "32",
						"value": "t_struct(DeductionDetails)10_storage"
					},
					"t_mapping(t_bytes32,t_uint256)": {
						"encoding": "mapping",
						"key": "t_bytes32",
						"label": "mapping(bytes32 => uint256)",
						"numberOfBytes": "32",
						"value": "t_uint256"
					},
					"t_struct(DeductionDetails)10_storage": {
						"encoding": "inplace",
						"label": "struct Payroll.DeductionDetails",
						"members": [
							{
								"astId": 3,
								"contract": "contracts/Payroll.sol:Payroll",
								"label": "basic",
								"offset": 0,
								"slot": "0",
								"type": "t_uint256"
							},
							{
								"astId": 5,
								"contract": "contracts/Payroll.sol:Payroll",
								"label": "tax",
								"offset": 0,
								"slot": "1",
								"type": "t_uint256"
							},
							{
								"astId": 7,
								"contract": "contracts/Payroll.sol:Payroll",
								"label": "pension",
								"offset": 0,
								"slot": "2",
								"type": "t_uint256"
							},
							{
								"astId": 9,
								"contract": "contracts/Payroll.sol:Payroll",
								"label": "others",
								"offset": 0,
								"slot": "3",
								"type": "t_uint256"
							}
						],
						"numberOfBytes": "128"
					},
					"t_uint256": {
						"encoding": "inplace",
						"label": "uint256",
						"numberOfBytes": "32"
					}
				}
			},
			"userdoc": {
				"kind": "user",
				"methods": {},
				"version": 1
			}
		}
	}
}