{
	"data": {
		"bytecode": {
			"linkReferences": {},
			"object": "608060405234801561001057600080fd5b50610918806100206000396000f3fe608060405234801561001057600080fd5b50600436106100885760003560e01c80638062b3d81161005b5780638062b3d81461014d5780638560a8ef1461016b5780639afd2f971461019b578063b7bcafa0146101cb57610088565b8063233a0f251461008d5780634a27b35f146100bd5780636cb2e12b146100ed5780637862a56e1461011d575b600080fd5b6100a760048036038101906100a291906105b5565b6101fe565b6040516100b4919061074d565b60405180910390f35b6100d760048036038101906100d29190610635565b6102eb565b6040516100e4919061074d565b60405180910390f35b61010760048036038101906101029190610635565b610323565b604051610114919061074d565b60405180910390f35b61013760048036038101906101329190610635565b61035b565b604051610144919061074d565b60405180910390f35b610155610393565b604051610162919061072b565b60405180910390f35b61018560048036038101906101809190610635565b6103eb565b604051610192919061074d565b60405180910390f35b6101b560048036038101906101b091906105f5565b610423565b6040516101c2919061074d565b60405180910390f35b6101e560048036038101906101e091906105f5565b6104f0565b6040516101f59493929190610768565b60405180910390f35b6000816001600085815260200190815260200160002060006101000a81548160ff021916908315150217905550811561029a576000600260008581526020019081526020016000205490506000801b600360018361025c91906107e6565b8154811061026d5761026c610869565b5b906000526020600020018190555060006002600086815260200190815260200160002081905550506102e1565b600383908060018154018082558091505060019003906000526020600020016000909190919091505560038054905060026000858152602001908152602001600020819055505b6001905092915050565b600082600080848152602001908152602001600020600086815260200190815260200160002060030181905550600190509392505050565b600082600080848152602001908152602001600020600086815260200190815260200160002060000181905550600190509392505050565b600082600080848152602001908152602001600020600086815260200190815260200160002060010181905550600190509392505050565b606060038054806020026020016040519081016040528092919081815260200182805480156103e157602002820191906000526020600020905b8154815260200190600101908083116103cd575b5050505050905090565b600082600080848152602001908152602001600020600086815260200190815260200160002060020181905550600190509392505050565b6000600180600085815260200190815260200160002060006101000a81548160ff021916908315150217905550600080600084815260200190815260200160002060008581526020019081526020016000209050603c8160000181905550600f8160030181905550601481600101819055506005816002018190555060038490806001815401808255809150506001900390600052602060002001600090919091909150556003805490506002600086815260200190815260200160002081905550600191505092915050565b600080600080600080600087815260200190815260200160002060008881526020019081526020016000206040518060800160405290816000820154815260200160018201548152602001600282015481526020016003820154815250509050806000015181602001518260400151836060015194509450945094505092959194509250565b6000813590506105858161089d565b92915050565b60008135905061059a816108b4565b92915050565b6000813590506105af816108cb565b92915050565b600080604083850312156105cc576105cb610898565b5b60006105da8582860161058b565b92505060206105eb85828601610576565b9150509250929050565b6000806040838503121561060c5761060b610898565b5b600061061a8582860161058b565b925050602061062b8582860161058b565b9150509250929050565b60008060006060848603121561064e5761064d610898565b5b600061065c8682870161058b565b935050602061066d868287016105a0565b925050604061067e8682870161058b565b9150509250925092565b6000610694838361070d565b60208301905092915050565b60006106ab826107bd565b6106b581856107d5565b93506106c0836107ad565b8060005b838110156106f15781516106d88882610688565b97506106e3836107c8565b9250506001810190506106c4565b5085935050505092915050565b6107078161081a565b82525050565b61071681610826565b82525050565b61072581610830565b82525050565b6000602082019050818103600083015261074581846106a0565b905092915050565b600060208201905061076260008301846106fe565b92915050565b600060808201905061077d600083018761071c565b61078a602083018661071c565b610797604083018561071c565b6107a4606083018461071c565b95945050505050565b6000819050602082019050919050565b600081519050919050565b6000602082019050919050565b600082825260208201905092915050565b60006107f182610830565b91506107fc83610830565b92508282101561080f5761080e61083a565b5b828203905092915050565b60008115159050919050565b6000819050919050565b6000819050919050565b7f4e487b7100000000000000000000000000000000000000000000000000000000600052601160045260246000fd5b7f4e487b7100000000000000000000000000000000000000000000000000000000600052603260045260246000fd5b600080fd5b6108a68161081a565b81146108b157600080fd5b50565b6108bd81610826565b81146108c857600080fd5b50565b6108d481610830565b81146108df57600080fd5b5056fea2646970667358221220420f3ecfe87ae86280e4b0defcb686cda0d579f795b6a7435b8d90aa3c1d159c64736f6c63430008070033",
			"opcodes": "PUSH1 0x80 PUSH1 0x40 MSTORE CALLVALUE DUP1 ISZERO PUSH2 0x10 JUMPI PUSH1 0x0 DUP1 REVERT JUMPDEST POP PUSH2 0x918 DUP1 PUSH2 0x20 PUSH1 0x0 CODECOPY PUSH1 0x0 RETURN INVALID PUSH1 0x80 PUSH1 0x40 MSTORE CALLVALUE DUP1 ISZERO PUSH2 0x10 JUMPI PUSH1 0x0 DUP1 REVERT JUMPDEST POP PUSH1 0x4 CALLDATASIZE LT PUSH2 0x88 JUMPI PUSH1 0x0 CALLDATALOAD PUSH1 0xE0 SHR DUP1 PUSH4 0x8062B3D8 GT PUSH2 0x5B JUMPI DUP1 PUSH4 0x8062B3D8 EQ PUSH2 0x14D JUMPI DUP1 PUSH4 0x8560A8EF EQ PUSH2 0x16B JUMPI DUP1 PUSH4 0x9AFD2F97 EQ PUSH2 0x19B JUMPI DUP1 PUSH4 0xB7BCAFA0 EQ PUSH2 0x1CB JUMPI PUSH2 0x88 JUMP JUMPDEST DUP1 PUSH4 0x233A0F25 EQ PUSH2 0x8D JUMPI DUP1 PUSH4 0x4A27B35F EQ PUSH2 0xBD JUMPI DUP1 PUSH4 0x6CB2E12B EQ PUSH2 0xED JUMPI DUP1 PUSH4 0x7862A56E EQ PUSH2 0x11D JUMPI JUMPDEST PUSH1 0x0 DUP1 REVERT JUMPDEST PUSH2 0xA7 PUSH1 0x4 DUP1 CALLDATASIZE SUB DUP2 ADD SWAP1 PUSH2 0xA2 SWAP2 SWAP1 PUSH2 0x5B5 JUMP JUMPDEST PUSH2 0x1FE JUMP JUMPDEST PUSH1 0x40 MLOAD PUSH2 0xB4 SWAP2 SWAP1 PUSH2 0x74D JUMP JUMPDEST PUSH1 0x40 MLOAD DUP1 SWAP2 SUB SWAP1 RETURN JUMPDEST PUSH2 0xD7 PUSH1 0x4 DUP1 CALLDATASIZE SUB DUP2 ADD SWAP1 PUSH2 0xD2 SWAP2 SWAP1 PUSH2 0x635 JUMP JUMPDEST PUSH2 0x2EB JUMP JUMPDEST PUSH1 0x40 MLOAD PUSH2 0xE4 SWAP2 SWAP1 PUSH2 0x74D JUMP JUMPDEST PUSH1 0x40 MLOAD DUP1 SWAP2 SUB SWAP1 RETURN JUMPDEST PUSH2 0x107 PUSH1 0x4 DUP1 CALLDATASIZE SUB DUP2 ADD SWAP1 PUSH2 0x102 SWAP2 SWAP1 PUSH2 0x635 JUMP JUMPDEST PUSH2 0x323 JUMP JUMPDEST PUSH1 0x40 MLOAD PUSH2 0x114 SWAP2 SWAP1 PUSH2 0x74D JUMP JUMPDEST PUSH1 0x40 MLOAD DUP1 SWAP2 SUB SWAP1 RETURN JUMPDEST PUSH2 0x137 PUSH1 0x4 DUP1 CALLDATASIZE SUB DUP2 ADD SWAP1 PUSH2 0x132 SWAP2 SWAP1 PUSH2 0x635 JUMP JUMPDEST PUSH2 0x35B JUMP JUMPDEST PUSH1 0x40 MLOAD PUSH2 0x144 SWAP2 SWAP1 PUSH2 0x74D JUMP JUMPDEST PUSH1 0x40 MLOAD DUP1 SWAP2 SUB SWAP1 RETURN JUMPDEST PUSH2 0x155 PUSH2 0x393 JUMP JUMPDEST PUSH1 0x40 MLOAD PUSH2 0x162 SWAP2 SWAP1 PUSH2 0x72B JUMP JUMPDEST PUSH1 0x40 MLOAD DUP1 SWAP2 SUB SWAP1 RETURN JUMPDEST PUSH2 0x185 PUSH1 0x4 DUP1 CALLDATASIZE SUB DUP2 ADD SWAP1 PUSH2 0x180 SWAP2 SWAP1 PUSH2 0x635 JUMP JUMPDEST PUSH2 0x3EB JUMP JUMPDEST PUSH1 0x40 MLOAD PUSH2 0x192 SWAP2 SWAP1 PUSH2 0x74D JUMP JUMPDEST PUSH1 0x40 MLOAD DUP1 SWAP2 SUB SWAP1 RETURN JUMPDEST PUSH2 0x1B5 PUSH1 0x4 DUP1 CALLDATASIZE SUB DUP2 ADD SWAP1 PUSH2 0x1B0 SWAP2 SWAP1 PUSH2 0x5F5 JUMP JUMPDEST PUSH2 0x423 JUMP JUMPDEST PUSH1 0x40 MLOAD PUSH2 0x1C2 SWAP2 SWAP1 PUSH2 0x74D JUMP JUMPDEST PUSH1 0x40 MLOAD DUP1 SWAP2 SUB SWAP1 RETURN JUMPDEST PUSH2 0x1E5 PUSH1 0x4 DUP1 CALLDATASIZE SUB DUP2 ADD SWAP1 PUSH2 0x1E0 SWAP2 SWAP1 PUSH2 0x5F5 JUMP JUMPDEST PUSH2 0x4F0 JUMP JUMPDEST PUSH1 0x40 MLOAD PUSH2 0x1F5 SWAP5 SWAP4 SWAP3 SWAP2 SWAP1 PUSH2 0x768 JUMP JUMPDEST PUSH1 0x40 MLOAD DUP1 SWAP2 SUB SWAP1 RETURN JUMPDEST PUSH1 0x0 DUP2 PUSH1 0x1 PUSH1 0x0 DUP6 DUP2 MSTORE PUSH1 0x20 ADD SWAP1 DUP2 MSTORE PUSH1 0x20 ADD PUSH1 0x0 KECCAK256 PUSH1 0x0 PUSH2 0x100 EXP DUP2 SLOAD DUP2 PUSH1 0xFF MUL NOT AND SWAP1 DUP4 ISZERO ISZERO MUL OR SWAP1 SSTORE POP DUP2 ISZERO PUSH2 0x29A JUMPI PUSH1 0x0 PUSH1 0x2 PUSH1 0x0 DUP6 DUP2 MSTORE PUSH1 0x20 ADD SWAP1 DUP2 MSTORE PUSH1 0x20 ADD PUSH1 0x0 KECCAK256 SLOAD SWAP1 POP PUSH1 0x0 DUP1 SHL PUSH1 0x3 PUSH1 0x1 DUP4 PUSH2 0x25C SWAP2 SWAP1 PUSH2 0x7E6 JUMP JUMPDEST DUP2 SLOAD DUP2 LT PUSH2 0x26D JUMPI PUSH2 0x26C PUSH2 0x869 JUMP JUMPDEST JUMPDEST SWAP1 PUSH1 0x0 MSTORE PUSH1 0x20 PUSH1 0x0 KECCAK256 ADD DUP2 SWAP1 SSTORE POP PUSH1 0x0 PUSH1 0x2 PUSH1 0x0 DUP7 DUP2 MSTORE PUSH1 0x20 ADD SWAP1 DUP2 MSTORE PUSH1 0x20 ADD PUSH1 0x0 KECCAK256 DUP2 SWAP1 SSTORE POP POP PUSH2 0x2E1 JUMP JUMPDEST PUSH1 0x3 DUP4 SWAP1 DUP1 PUSH1 0x1 DUP2 SLOAD ADD DUP1 DUP3 SSTORE DUP1 SWAP2 POP POP PUSH1 0x1 SWAP1 SUB SWAP1 PUSH1 0x0 MSTORE PUSH1 0x20 PUSH1 0x0 KECCAK256 ADD PUSH1 0x0 SWAP1 SWAP2 SWAP1 SWAP2 SWAP1 SWAP2 POP SSTORE PUSH1 0x3 DUP1 SLOAD SWAP1 POP PUSH1 0x2 PUSH1 0x0 DUP6 DUP2 MSTORE PUSH1 0x20 ADD SWAP1 DUP2 MSTORE PUSH1 0x20 ADD PUSH1 0x0 KECCAK256 DUP2 SWAP1 SSTORE POP JUMPDEST PUSH1 0x1 SWAP1 POP SWAP3 SWAP2 POP POP JUMP JUMPDEST PUSH1 0x0 DUP3 PUSH1 0x0 DUP1 DUP5 DUP2 MSTORE PUSH1 0x20 ADD SWAP1 DUP2 MSTORE PUSH1 0x20 ADD PUSH1 0x0 KECCAK256 PUSH1 0x0 DUP7 DUP2 MSTORE PUSH1 0x20 ADD SWAP1 DUP2 MSTORE PUSH1 0x20 ADD PUSH1 0x0 KECCAK256 PUSH1 0x3 ADD DUP2 SWAP1 SSTORE POP PUSH1 0x1 SWAP1 POP SWAP4 SWAP3 POP POP POP JUMP JUMPDEST PUSH1 0x0 DUP3 PUSH1 0x0 DUP1 DUP5 DUP2 MSTORE PUSH1 0x20 ADD SWAP1 DUP2 MSTORE PUSH1 0x20 ADD PUSH1 0x0 KECCAK256 PUSH1 0x0 DUP7 DUP2 MSTORE PUSH1 0x20 ADD SWAP1 DUP2 MSTORE PUSH1 0x20 ADD PUSH1 0x0 KECCAK256 PUSH1 0x0 ADD DUP2 SWAP1 SSTORE POP PUSH1 0x1 SWAP1 POP SWAP4 SWAP3 POP POP POP JUMP JUMPDEST PUSH1 0x0 DUP3 PUSH1 0x0 DUP1 DUP5 DUP2 MSTORE PUSH1 0x20 ADD SWAP1 DUP2 MSTORE PUSH1 0x20 ADD PUSH1 0x0 KECCAK256 PUSH1 0x0 DUP7 DUP2 MSTORE PUSH1 0x20 ADD SWAP1 DUP2 MSTORE PUSH1 0x20 ADD PUSH1 0x0 KECCAK256 PUSH1 0x1 ADD DUP2 SWAP1 SSTORE POP PUSH1 0x1 SWAP1 POP SWAP4 SWAP3 POP POP POP JUMP JUMPDEST PUSH1 0x60 PUSH1 0x3 DUP1 SLOAD DUP1 PUSH1 0x20 MUL PUSH1 0x20 ADD PUSH1 0x40 MLOAD SWAP1 DUP2 ADD PUSH1 0x40 MSTORE DUP1 SWAP3 SWAP2 SWAP1 DUP2 DUP2 MSTORE PUSH1 0x20 ADD DUP3 DUP1 SLOAD DUP1 ISZERO PUSH2 0x3E1 JUMPI PUSH1 0x20 MUL DUP3 ADD SWAP2 SWAP1 PUSH1 0x0 MSTORE PUSH1 0x20 PUSH1 0x0 KECCAK256 SWAP1 JUMPDEST DUP2 SLOAD DUP2 MSTORE PUSH1 0x20 ADD SWAP1 PUSH1 0x1 ADD SWAP1 DUP1 DUP4 GT PUSH2 0x3CD JUMPI JUMPDEST POP POP POP POP POP SWAP1 POP SWAP1 JUMP JUMPDEST PUSH1 0x0 DUP3 PUSH1 0x0 DUP1 DUP5 DUP2 MSTORE PUSH1 0x20 ADD SWAP1 DUP2 MSTORE PUSH1 0x20 ADD PUSH1 0x0 KECCAK256 PUSH1 0x0 DUP7 DUP2 MSTORE PUSH1 0x20 ADD SWAP1 DUP2 MSTORE PUSH1 0x20 ADD PUSH1 0x0 KECCAK256 PUSH1 0x2 ADD DUP2 SWAP1 SSTORE POP PUSH1 0x1 SWAP1 POP SWAP4 SWAP3 POP POP POP JUMP JUMPDEST PUSH1 0x0 PUSH1 0x1 DUP1 PUSH1 0x0 DUP6 DUP2 MSTORE PUSH1 0x20 ADD SWAP1 DUP2 MSTORE PUSH1 0x20 ADD PUSH1 0x0 KECCAK256 PUSH1 0x0 PUSH2 0x100 EXP DUP2 SLOAD DUP2 PUSH1 0xFF MUL NOT AND SWAP1 DUP4 ISZERO ISZERO MUL OR SWAP1 SSTORE POP PUSH1 0x0 DUP1 PUSH1 0x0 DUP5 DUP2 MSTORE PUSH1 0x20 ADD SWAP1 DUP2 MSTORE PUSH1 0x20 ADD PUSH1 0x0 KECCAK256 PUSH1 0x0 DUP6 DUP2 MSTORE PUSH1 0x20 ADD SWAP1 DUP2 MSTORE PUSH1 0x20 ADD PUSH1 0x0 KECCAK256 SWAP1 POP PUSH1 0x3C DUP2 PUSH1 0x0 ADD DUP2 SWAP1 SSTORE POP PUSH1 0xF DUP2 PUSH1 0x3 ADD DUP2 SWAP1 SSTORE POP PUSH1 0x14 DUP2 PUSH1 0x1 ADD DUP2 SWAP1 SSTORE POP PUSH1 0x5 DUP2 PUSH1 0x2 ADD DUP2 SWAP1 SSTORE POP PUSH1 0x3 DUP5 SWAP1 DUP1 PUSH1 0x1 DUP2 SLOAD ADD DUP1 DUP3 SSTORE DUP1 SWAP2 POP POP PUSH1 0x1 SWAP1 SUB SWAP1 PUSH1 0x0 MSTORE PUSH1 0x20 PUSH1 0x0 KECCAK256 ADD PUSH1 0x0 SWAP1 SWAP2 SWAP1 SWAP2 SWAP1 SWAP2 POP SSTORE PUSH1 0x3 DUP1 SLOAD SWAP1 POP PUSH1 0x2 PUSH1 0x0 DUP7 DUP2 MSTORE PUSH1 0x20 ADD SWAP1 DUP2 MSTORE PUSH1 0x20 ADD PUSH1 0x0 KECCAK256 DUP2 SWAP1 SSTORE POP PUSH1 0x1 SWAP2 POP POP SWAP3 SWAP2 POP POP JUMP JUMPDEST PUSH1 0x0 DUP1 PUSH1 0x0 DUP1 PUSH1 0x0 DUP1 PUSH1 0x0 DUP8 DUP2 MSTORE PUSH1 0x20 ADD SWAP1 DUP2 MSTORE PUSH1 0x20 ADD PUSH1 0x0 KECCAK256 PUSH1 0x0 DUP9 DUP2 MSTORE PUSH1 0x20 ADD SWAP1 DUP2 MSTORE PUSH1 0x20 ADD PUSH1 0x0 KECCAK256 PUSH1 0x40 MLOAD DUP1 PUSH1 0x80 ADD PUSH1 0x40 MSTORE SWAP1 DUP2 PUSH1 0x0 DUP3 ADD SLOAD DUP2 MSTORE PUSH1 0x20 ADD PUSH1 0x1 DUP3 ADD SLOAD DUP2 MSTORE PUSH1 0x20 ADD PUSH1 0x2 DUP3 ADD SLOAD DUP2 MSTORE PUSH1 0x20 ADD PUSH1 0x3 DUP3 ADD SLOAD DUP2 MSTORE POP POP SWAP1 POP DUP1 PUSH1 0x0 ADD MLOAD DUP2 PUSH1 0x20 ADD MLOAD DUP3 PUSH1 0x40 ADD MLOAD DUP4 PUSH1 0x60 ADD MLOAD SWAP5 POP SWAP5 POP SWAP5 POP SWAP5 POP POP SWAP3 SWAP6 SWAP2 SWAP5 POP SWAP3 POP JUMP JUMPDEST PUSH1 0x0 DUP2 CALLDATALOAD SWAP1 POP PUSH2 0x585 DUP2 PUSH2 0x89D JUMP JUMPDEST SWAP3 SWAP2 POP POP JUMP JUMPDEST PUSH1 0x0 DUP2 CALLDATALOAD SWAP1 POP PUSH2 0x59A DUP2 PUSH2 0x8B4 JUMP JUMPDEST SWAP3 SWAP2 POP POP JUMP JUMPDEST PUSH1 0x0 DUP2 CALLDATALOAD SWAP1 POP PUSH2 0x5AF DUP2 PUSH2 0x8CB JUMP JUMPDEST SWAP3 SWAP2 POP POP JUMP JUMPDEST PUSH1 0x0 DUP1 PUSH1 0x40 DUP4 DUP6 SUB SLT ISZERO PUSH2 0x5CC JUMPI PUSH2 0x5CB PUSH2 0x898 JUMP JUMPDEST JUMPDEST PUSH1 0x0 PUSH2 0x5DA DUP6 DUP3 DUP7 ADD PUSH2 0x58B JUMP JUMPDEST SWAP3 POP POP PUSH1 0x20 PUSH2 0x5EB DUP6 DUP3 DUP7 ADD PUSH2 0x576 JUMP JUMPDEST SWAP2 POP POP SWAP3 POP SWAP3 SWAP1 POP JUMP JUMPDEST PUSH1 0x0 DUP1 PUSH1 0x40 DUP4 DUP6 SUB SLT ISZERO PUSH2 0x60C JUMPI PUSH2 0x60B PUSH2 0x898 JUMP JUMPDEST JUMPDEST PUSH1 0x0 PUSH2 0x61A DUP6 DUP3 DUP7 ADD PUSH2 0x58B JUMP JUMPDEST SWAP3 POP POP PUSH1 0x20 PUSH2 0x62B DUP6 DUP3 DUP7 ADD PUSH2 0x58B JUMP JUMPDEST SWAP2 POP POP SWAP3 POP SWAP3 SWAP1 POP JUMP JUMPDEST PUSH1 0x0 DUP1 PUSH1 0x0 PUSH1 0x60 DUP5 DUP7 SUB SLT ISZERO PUSH2 0x64E JUMPI PUSH2 0x64D PUSH2 0x898 JUMP JUMPDEST JUMPDEST PUSH1 0x0 PUSH2 0x65C DUP7 DUP3 DUP8 ADD PUSH2 0x58B JUMP JUMPDEST SWAP4 POP POP PUSH1 0x20 PUSH2 0x66D DUP7 DUP3 DUP8 ADD PUSH2 0x5A0 JUMP JUMPDEST SWAP3 POP POP PUSH1 0x40 PUSH2 0x67E DUP7 DUP3 DUP8 ADD PUSH2 0x58B JUMP JUMPDEST SWAP2 POP POP SWAP3 POP SWAP3 POP SWAP3 JUMP JUMPDEST PUSH1 0x0 PUSH2 0x694 DUP4 DUP4 PUSH2 0x70D JUMP JUMPDEST PUSH1 0x20 DUP4 ADD SWAP1 POP SWAP3 SWAP2 POP POP JUMP JUMPDEST PUSH1 0x0 PUSH2 0x6AB DUP3 PUSH2 0x7BD JUMP JUMPDEST PUSH2 0x6B5 DUP2 DUP6 PUSH2 0x7D5 JUMP JUMPDEST SWAP4 POP PUSH2 0x6C0 DUP4 PUSH2 0x7AD JUMP JUMPDEST DUP1 PUSH1 0x0 JUMPDEST DUP4 DUP2 LT ISZERO PUSH2 0x6F1 JUMPI DUP2 MLOAD PUSH2 0x6D8 DUP9 DUP3 PUSH2 0x688 JUMP JUMPDEST SWAP8 POP PUSH2 0x6E3 DUP4 PUSH2 0x7C8 JUMP JUMPDEST SWAP3 POP POP PUSH1 0x1 DUP2 ADD SWAP1 POP PUSH2 0x6C4 JUMP JUMPDEST POP DUP6 SWAP4 POP POP POP POP SWAP3 SWAP2 POP POP JUMP JUMPDEST PUSH2 0x707 DUP2 PUSH2 0x81A JUMP JUMPDEST DUP3 MSTORE POP POP JUMP JUMPDEST PUSH2 0x716 DUP2 PUSH2 0x826 JUMP JUMPDEST DUP3 MSTORE POP POP JUMP JUMPDEST PUSH2 0x725 DUP2 PUSH2 0x830 JUMP JUMPDEST DUP3 MSTORE POP POP JUMP JUMPDEST PUSH1 0x0 PUSH1 0x20 DUP3 ADD SWAP1 POP DUP2 DUP2 SUB PUSH1 0x0 DUP4 ADD MSTORE PUSH2 0x745 DUP2 DUP5 PUSH2 0x6A0 JUMP JUMPDEST SWAP1 POP SWAP3 SWAP2 POP POP JUMP JUMPDEST PUSH1 0x0 PUSH1 0x20 DUP3 ADD SWAP1 POP PUSH2 0x762 PUSH1 0x0 DUP4 ADD DUP5 PUSH2 0x6FE JUMP JUMPDEST SWAP3 SWAP2 POP POP JUMP JUMPDEST PUSH1 0x0 PUSH1 0x80 DUP3 ADD SWAP1 POP PUSH2 0x77D PUSH1 0x0 DUP4 ADD DUP8 PUSH2 0x71C JUMP JUMPDEST PUSH2 0x78A PUSH1 0x20 DUP4 ADD DUP7 PUSH2 0x71C JUMP JUMPDEST PUSH2 0x797 PUSH1 0x40 DUP4 ADD DUP6 PUSH2 0x71C JUMP JUMPDEST PUSH2 0x7A4 PUSH1 0x60 DUP4 ADD DUP5 PUSH2 0x71C JUMP JUMPDEST SWAP6 SWAP5 POP POP POP POP POP JUMP JUMPDEST PUSH1 0x0 DUP2 SWAP1 POP PUSH1 0x20 DUP3 ADD SWAP1 POP SWAP2 SWAP1 POP JUMP JUMPDEST PUSH1 0x0 DUP2 MLOAD SWAP1 POP SWAP2 SWAP1 POP JUMP JUMPDEST PUSH1 0x0 PUSH1 0x20 DUP3 ADD SWAP1 POP SWAP2 SWAP1 POP JUMP JUMPDEST PUSH1 0x0 DUP3 DUP3 MSTORE PUSH1 0x20 DUP3 ADD SWAP1 POP SWAP3 SWAP2 POP POP JUMP JUMPDEST PUSH1 0x0 PUSH2 0x7F1 DUP3 PUSH2 0x830 JUMP JUMPDEST SWAP2 POP PUSH2 0x7FC DUP4 PUSH2 0x830 JUMP JUMPDEST SWAP3 POP DUP3 DUP3 LT ISZERO PUSH2 0x80F JUMPI PUSH2 0x80E PUSH2 0x83A JUMP JUMPDEST JUMPDEST DUP3 DUP3 SUB SWAP1 POP SWAP3 SWAP2 POP POP JUMP JUMPDEST PUSH1 0x0 DUP2 ISZERO ISZERO SWAP1 POP SWAP2 SWAP1 POP JUMP JUMPDEST PUSH1 0x0 DUP2 SWAP1 POP SWAP2 SWAP1 POP JUMP JUMPDEST PUSH1 0x0 DUP2 SWAP1 POP SWAP2 SWAP1 POP JUMP JUMPDEST PUSH32 0x4E487B7100000000000000000000000000000000000000000000000000000000 PUSH1 0x0 MSTORE PUSH1 0x11 PUSH1 0x4 MSTORE PUSH1 0x24 PUSH1 0x0 REVERT JUMPDEST PUSH32 0x4E487B7100000000000000000000000000000000000000000000000000000000 PUSH1 0x0 MSTORE PUSH1 0x32 PUSH1 0x4 MSTORE PUSH1 0x24 PUSH1 0x0 REVERT JUMPDEST PUSH1 0x0 DUP1 REVERT JUMPDEST PUSH2 0x8A6 DUP2 PUSH2 0x81A JUMP JUMPDEST DUP2 EQ PUSH2 0x8B1 JUMPI PUSH1 0x0 DUP1 REVERT JUMPDEST POP JUMP JUMPDEST PUSH2 0x8BD DUP2 PUSH2 0x826 JUMP JUMPDEST DUP2 EQ PUSH2 0x8C8 JUMPI PUSH1 0x0 DUP1 REVERT JUMPDEST POP JUMP JUMPDEST PUSH2 0x8D4 DUP2 PUSH2 0x830 JUMP JUMPDEST DUP2 EQ PUSH2 0x8DF JUMPI PUSH1 0x0 DUP1 REVERT JUMPDEST POP JUMP INVALID LOG2 PUSH5 0x6970667358 0x22 SLT KECCAK256 TIMESTAMP 0xF RETURNDATACOPY 0xCF 0xE8 PUSH27 0xE86280E4B0DEFCB686CDA0D579F795B6A7435B8D90AA3C1D159C64 PUSH20 0x6F6C634300080700330000000000000000000000 "
		},
		"gasEstimates": {
			"creation": {
				"codeDepositCost": "465600",
				"executionCost": "499",
				"totalCost": "466099"
			},
			"external": {
				"getSubscribedPayrollAddress()": "infinite",
				"getUserPayrollInformation(bytes32,bytes32)": "infinite",
				"subscribeToPayroll(bytes32,bytes32)": "infinite",
				"updateBasicSalaryPercent(bytes32,uint256,bytes32)": "infinite",
				"updateOthersSalaryPercent(bytes32,uint256,bytes32)": "infinite",
				"updatePensionSalaryPercent(bytes32,uint256,bytes32)": "infinite",
				"updateSubscription(bytes32,bool)": "infinite",
				"updateTaxSalaryPercent(bytes32,uint256,bytes32)": "infinite"
			}
		},
		"methodIdentifiers": {
			"getSubscribedPayrollAddress()": "8062b3d8",
			"getUserPayrollInformation(bytes32,bytes32)": "b7bcafa0",
			"subscribeToPayroll(bytes32,bytes32)": "9afd2f97",
			"updateBasicSalaryPercent(bytes32,uint256,bytes32)": "6cb2e12b",
			"updateOthersSalaryPercent(bytes32,uint256,bytes32)": "4a27b35f",
			"updatePensionSalaryPercent(bytes32,uint256,bytes32)": "8560a8ef",
			"updateSubscription(bytes32,bool)": "233a0f25",
			"updateTaxSalaryPercent(bytes32,uint256,bytes32)": "7862a56e"
		}
	},
	"abi": [
		{
			"inputs": [],
			"name": "getSubscribedPayrollAddress",
			"outputs": [
				{
					"internalType": "bytes32[]",
					"name": "ActiveSubscriberList",
					"type": "bytes32[]"
				}
			],
			"stateMutability": "view",
			"type": "function"
		},
		{
			"inputs": [
				{
					"internalType": "bytes32",
					"name": "_addr",
					"type": "bytes32"
				},
				{
					"internalType": "bytes32",
					"name": "_data",
					"type": "bytes32"
				}
			],
			"name": "getUserPayrollInformation",
			"outputs": [
				{
					"internalType": "uint256",
					"name": "Basic",
					"type": "uint256"
				},
				{
					"internalType": "uint256",
					"name": "Tax",
					"type": "uint256"
				},
				{
					"internalType": "uint256",
					"name": "Pension",
					"type": "uint256"
				},
				{
					"internalType": "uint256",
					"name": "Others",
					"type": "uint256"
				}
			],
			"stateMutability": "view",
			"type": "function"
		},
		{
			"inputs": [
				{
					"internalType": "bytes32",
					"name": "_addr",
					"type": "bytes32"
				},
				{
					"internalType": "bytes32",
					"name": "_data",
					"type": "bytes32"
				}
			],
			"name": "subscribeToPayroll",
			"outputs": [
				{
					"internalType": "bool",
					"name": "",
					"type": "bool"
				}
			],
			"stateMutability": "nonpayable",
			"type": "function"
		},
		{
			"inputs": [
				{
					"internalType": "bytes32",
					"name": "_addr",
					"type": "bytes32"
				},
				{
					"internalType": "uint256",
					"name": "_amount",
					"type": "uint256"
				},
				{
					"internalType": "bytes32",
					"name": "_data",
					"type": "bytes32"
				}
			],
			"name": "updateBasicSalaryPercent",
			"outputs": [
				{
					"internalType": "bool",
					"name": "",
					"type": "bool"
				}
			],
			"stateMutability": "nonpayable",
			"type": "function"
		},
		{
			"inputs": [
				{
					"internalType": "bytes32",
					"name": "_addr",
					"type": "bytes32"
				},
				{
					"internalType": "uint256",
					"name": "_amount",
					"type": "uint256"
				},
				{
					"internalType": "bytes32",
					"name": "_data",
					"type": "bytes32"
				}
			],
			"name": "updateOthersSalaryPercent",
			"outputs": [
				{
					"internalType": "bool",
					"name": "",
					"type": "bool"
				}
			],
			"stateMutability": "nonpayable",
			"type": "function"
		},
		{
			"inputs": [
				{
					"internalType": "bytes32",
					"name": "_addr",
					"type": "bytes32"
				},
				{
					"internalType": "uint256",
					"name": "_amount",
					"type": "uint256"
				},
				{
					"internalType": "bytes32",
					"name": "_data",
					"type": "bytes32"
				}
			],
			"name": "updatePensionSalaryPercent",
			"outputs": [
				{
					"internalType": "bool",
					"name": "",
					"type": "bool"
				}
			],
			"stateMutability": "nonpayable",
			"type": "function"
		},
		{
			"inputs": [
				{
					"internalType": "bytes32",
					"name": "_addr",
					"type": "bytes32"
				},
				{
					"internalType": "bool",
					"name": "_status",
					"type": "bool"
				}
			],
			"name": "updateSubscription",
			"outputs": [
				{
					"internalType": "bool",
					"name": "",
					"type": "bool"
				}
			],
			"stateMutability": "nonpayable",
			"type": "function"
		},
		{
			"inputs": [
				{
					"internalType": "bytes32",
					"name": "_addr",
					"type": "bytes32"
				},
				{
					"internalType": "uint256",
					"name": "_amount",
					"type": "uint256"
				},
				{
					"internalType": "bytes32",
					"name": "_data",
					"type": "bytes32"
				}
			],
			"name": "updateTaxSalaryPercent",
			"outputs": [
				{
					"internalType": "bool",
					"name": "",
					"type": "bool"
				}
			],
			"stateMutability": "nonpayable",
			"type": "function"
		}
	]
}